{
  "contractName": "Arbitrator",
  "abi": [
    {
      "constant": true,
      "inputs": [],
      "name": "metadata",
      "outputs": [
        {
          "name": "",
          "type": "string"
        }
      ],
      "payable": false,
      "stateMutability": "view",
      "type": "function",
      "signature": "0x392f37e9"
    },
    {
      "constant": true,
      "inputs": [],
      "name": "owner",
      "outputs": [
        {
          "name": "",
          "type": "address"
        }
      ],
      "payable": false,
      "stateMutability": "view",
      "type": "function",
      "signature": "0x8da5cb5b"
    },
    {
      "constant": true,
      "inputs": [
        {
          "name": "",
          "type": "bytes32"
        }
      ],
      "name": "arbitration_bounties",
      "outputs": [
        {
          "name": "",
          "type": "uint256"
        }
      ],
      "payable": false,
      "stateMutability": "view",
      "type": "function",
      "signature": "0xa20dd43b"
    },
    {
      "constant": true,
      "inputs": [],
      "name": "realitio",
      "outputs": [
        {
          "name": "",
          "type": "address"
        }
      ],
      "payable": false,
      "stateMutability": "view",
      "type": "function",
      "signature": "0xbc8802a2"
    },
    {
      "constant": false,
      "inputs": [
        {
          "name": "newOwner",
          "type": "address"
        }
      ],
      "name": "transferOwnership",
      "outputs": [],
      "payable": false,
      "stateMutability": "nonpayable",
      "type": "function",
      "signature": "0xf2fde38b"
    },
    {
      "inputs": [],
      "payable": false,
      "stateMutability": "nonpayable",
      "type": "constructor",
      "signature": "constructor"
    },
    {
      "payable": true,
      "stateMutability": "payable",
      "type": "fallback"
    },
    {
      "anonymous": false,
      "inputs": [
        {
          "indexed": true,
          "name": "question_id",
          "type": "bytes32"
        },
        {
          "indexed": false,
          "name": "fee_paid",
          "type": "uint256"
        },
        {
          "indexed": false,
          "name": "requester",
          "type": "address"
        },
        {
          "indexed": false,
          "name": "remaining",
          "type": "uint256"
        }
      ],
      "name": "LogRequestArbitration",
      "type": "event",
      "signature": "0xdf8a830581aa05b0b824a0c184007c33a1ad9100a41751c9ded9f2b4fefb16ba"
    },
    {
      "anonymous": false,
      "inputs": [
        {
          "indexed": false,
          "name": "realitio",
          "type": "address"
        }
      ],
      "name": "LogSetRealitio",
      "type": "event",
      "signature": "0x568b4ce4fc4d09c939362effe33053025b93088cab521fc476f469966c7efdd5"
    },
    {
      "anonymous": false,
      "inputs": [
        {
          "indexed": false,
          "name": "fee",
          "type": "uint256"
        }
      ],
      "name": "LogSetQuestionFee",
      "type": "event",
      "signature": "0x173ec7037500587e8ac3402cac8426c5c2bac605eabd93f790422e621633d711"
    },
    {
      "anonymous": false,
      "inputs": [
        {
          "indexed": false,
          "name": "fee",
          "type": "uint256"
        }
      ],
      "name": "LogSetDisputeFee",
      "type": "event",
      "signature": "0xbc1292d8ca346c1397b1176ce2935afd34c4365fece415b14e3a9242eae388f5"
    },
    {
      "anonymous": false,
      "inputs": [
        {
          "indexed": true,
          "name": "question_id",
          "type": "bytes32"
        },
        {
          "indexed": false,
          "name": "fee",
          "type": "uint256"
        }
      ],
      "name": "LogSetCustomDisputeFee",
      "type": "event",
      "signature": "0xe4887440991624b147d2129ab0befa8c1df4cff87b22513c8eea7cb16ed2aaf2"
    },
    {
      "constant": true,
      "inputs": [],
      "name": "realitycheck",
      "outputs": [
        {
          "name": "",
          "type": "address"
        }
      ],
      "payable": false,
      "stateMutability": "view",
      "type": "function",
      "signature": "0x0c2a48e2"
    },
    {
      "constant": false,
      "inputs": [
        {
          "name": "addr",
          "type": "address"
        }
      ],
      "name": "setRealitio",
      "outputs": [],
      "payable": false,
      "stateMutability": "nonpayable",
      "type": "function",
      "signature": "0x79ca21a2"
    },
    {
      "constant": false,
      "inputs": [
        {
          "name": "fee",
          "type": "uint256"
        }
      ],
      "name": "setDisputeFee",
      "outputs": [],
      "payable": false,
      "stateMutability": "nonpayable",
      "type": "function",
      "signature": "0x17299c04"
    },
    {
      "constant": false,
      "inputs": [
        {
          "name": "question_id",
          "type": "bytes32"
        },
        {
          "name": "fee",
          "type": "uint256"
        }
      ],
      "name": "setCustomDisputeFee",
      "outputs": [],
      "payable": false,
      "stateMutability": "nonpayable",
      "type": "function",
      "signature": "0x4381a07b"
    },
    {
      "constant": true,
      "inputs": [
        {
          "name": "question_id",
          "type": "bytes32"
        }
      ],
      "name": "getDisputeFee",
      "outputs": [
        {
          "name": "",
          "type": "uint256"
        }
      ],
      "payable": false,
      "stateMutability": "view",
      "type": "function",
      "signature": "0xa22352e2"
    },
    {
      "constant": false,
      "inputs": [
        {
          "name": "fee",
          "type": "uint256"
        }
      ],
      "name": "setQuestionFee",
      "outputs": [],
      "payable": false,
      "stateMutability": "nonpayable",
      "type": "function",
      "signature": "0x4df6ca2a"
    },
    {
      "constant": false,
      "inputs": [
        {
          "name": "question_id",
          "type": "bytes32"
        },
        {
          "name": "answer",
          "type": "bytes32"
        },
        {
          "name": "answerer",
          "type": "address"
        }
      ],
      "name": "submitAnswerByArbitrator",
      "outputs": [],
      "payable": false,
      "stateMutability": "nonpayable",
      "type": "function",
      "signature": "0xfe92049d"
    },
    {
      "constant": false,
      "inputs": [
        {
          "name": "question_id",
          "type": "bytes32"
        },
        {
          "name": "max_previous",
          "type": "uint256"
        }
      ],
      "name": "requestArbitration",
      "outputs": [
        {
          "name": "",
          "type": "bool"
        }
      ],
      "payable": true,
      "stateMutability": "payable",
      "type": "function",
      "signature": "0xa829c3d1"
    },
    {
      "constant": false,
      "inputs": [
        {
          "name": "addr",
          "type": "address"
        }
      ],
      "name": "withdraw",
      "outputs": [],
      "payable": false,
      "stateMutability": "nonpayable",
      "type": "function",
      "signature": "0x51cff8d9"
    },
    {
      "constant": false,
      "inputs": [],
      "name": "callWithdraw",
      "outputs": [],
      "payable": false,
      "stateMutability": "nonpayable",
      "type": "function",
      "signature": "0xdad901be"
    },
    {
      "constant": false,
      "inputs": [
        {
          "name": "_metadata",
          "type": "string"
        }
      ],
      "name": "setMetaData",
      "outputs": [],
      "payable": false,
      "stateMutability": "nonpayable",
      "type": "function",
      "signature": "0xd821f81a"
    }
  ],
  "bytecode": "0x608060405234801561001057600080fd5b50336000806101000a81548173ffffffffffffffffffffffffffffffffffffffff021916908373ffffffffffffffffffffffffffffffffffffffff160217905550336000806101000a81548173ffffffffffffffffffffffffffffffffffffffff021916908373ffffffffffffffffffffffffffffffffffffffff16021790555061140e806100a06000396000f3006080604052600436106100e6576000357c0100000000000000000000000000000000000000000000000000000000900463ffffffff1680630c2a48e2146100e857806317299c041461013f578063392f37e91461016c5780634381a07b146101fc5780634df6ca2a1461023757806351cff8d91461026457806379ca21a2146102a75780638da5cb5b146102ea578063a20dd43b14610341578063a22352e214610386578063a829c3d1146103cb578063bc8802a214610411578063d821f81a14610468578063dad901be146104d1578063f2fde38b146104e8578063fe92049d1461052b575b005b3480156100f457600080fd5b506100fd61058a565b604051808273ffffffffffffffffffffffffffffffffffffffff1673ffffffffffffffffffffffffffffffffffffffff16815260200191505060405180910390f35b34801561014b57600080fd5b5061016a600480360381019080803590602001909291905050506105b4565b005b34801561017857600080fd5b50610181610650565b6040518080602001828103825283818151815260200191508051906020019080838360005b838110156101c15780820151818401526020810190506101a6565b50505050905090810190601f1680156101ee5780820380516001836020036101000a031916815260200191505b509250505060405180910390f35b34801561020857600080fd5b506102356004803603810190808035600019169060200190929190803590602001909291905050506106ee565b005b34801561024357600080fd5b50610262600480360381019080803590602001909291905050506107a9565b005b34801561027057600080fd5b506102a5600480360381019080803573ffffffffffffffffffffffffffffffffffffffff1690602001909291905050506108e7565b005b3480156102b357600080fd5b506102e8600480360381019080803573ffffffffffffffffffffffffffffffffffffffff1690602001909291905050506109a3565b005b3480156102f657600080fd5b506102ff610aa5565b604051808273ffffffffffffffffffffffffffffffffffffffff1673ffffffffffffffffffffffffffffffffffffffff16815260200191505060405180910390f35b34801561034d57600080fd5b506103706004803603810190808035600019169060200190929190505050610aca565b6040518082815260200191505060405180910390f35b34801561039257600080fd5b506103b56004803603810190808035600019169060200190929190505050610ae2565b6040518082815260200191505060405180910390f35b6103f7600480360381019080803560001916906020019092919080359060200190929190505050610b32565b604051808215151515815260200191505060405180910390f35b34801561041d57600080fd5b50610426610f95565b604051808273ffffffffffffffffffffffffffffffffffffffff1673ffffffffffffffffffffffffffffffffffffffff16815260200191505060405180910390f35b34801561047457600080fd5b506104cf600480360381019080803590602001908201803590602001908080601f0160208091040260200160405190810160405280939291908181526020018383808284378201915050505050509192919290505050610fbb565b005b3480156104dd57600080fd5b506104e6611030565b005b3480156104f457600080fd5b50610529600480360381019080803573ffffffffffffffffffffffffffffffffffffffff16906020019092919050505061112b565b005b34801561053757600080fd5b5061058860048036038101908080356000191690602001909291908035600019169060200190929190803573ffffffffffffffffffffffffffffffffffffffff1690602001909291905050506111c9565b005b6000600160009054906101000a900473ffffffffffffffffffffffffffffffffffffffff16905090565b6000809054906101000a900473ffffffffffffffffffffffffffffffffffffffff1673ffffffffffffffffffffffffffffffffffffffff163373ffffffffffffffffffffffffffffffffffffffff1614151561060f57600080fd5b806003819055507fbc1292d8ca346c1397b1176ce2935afd34c4365fece415b14e3a9242eae388f5816040518082815260200191505060405180910390a150565b60058054600181600116156101000203166002900480601f0160208091040260200160405190810160405280929190818152602001828054600181600116156101000203166002900480156106e65780601f106106bb576101008083540402835291602001916106e6565b820191906000526020600020905b8154815290600101906020018083116106c957829003601f168201915b505050505081565b6000809054906101000a900473ffffffffffffffffffffffffffffffffffffffff1673ffffffffffffffffffffffffffffffffffffffff163373ffffffffffffffffffffffffffffffffffffffff1614151561074957600080fd5b806004600084600019166000191681526020019081526020016000208190555081600019167fe4887440991624b147d2129ab0befa8c1df4cff87b22513c8eea7cb16ed2aaf2826040518082815260200191505060405180910390a25050565b6000809054906101000a900473ffffffffffffffffffffffffffffffffffffffff1673ffffffffffffffffffffffffffffffffffffffff163373ffffffffffffffffffffffffffffffffffffffff1614151561080457600080fd5b600160009054906101000a900473ffffffffffffffffffffffffffffffffffffffff1673ffffffffffffffffffffffffffffffffffffffff16634df6ca2a826040518263ffffffff167c010000000000000000000000000000000000000000000000000000000002815260040180828152602001915050600060405180830381600087803b15801561089557600080fd5b505af11580156108a9573d6000803e3d6000fd5b505050507f173ec7037500587e8ac3402cac8426c5c2bac605eabd93f790422e621633d711816040518082815260200191505060405180910390a150565b6000809054906101000a900473ffffffffffffffffffffffffffffffffffffffff1673ffffffffffffffffffffffffffffffffffffffff163373ffffffffffffffffffffffffffffffffffffffff1614151561094257600080fd5b8073ffffffffffffffffffffffffffffffffffffffff166108fc3073ffffffffffffffffffffffffffffffffffffffff16319081150290604051600060405180830381858888f1935050505015801561099f573d6000803e3d6000fd5b5050565b6000809054906101000a900473ffffffffffffffffffffffffffffffffffffffff1673ffffffffffffffffffffffffffffffffffffffff163373ffffffffffffffffffffffffffffffffffffffff161415156109fe57600080fd5b80600160006101000a81548173ffffffffffffffffffffffffffffffffffffffff021916908373ffffffffffffffffffffffffffffffffffffffff1602179055507f568b4ce4fc4d09c939362effe33053025b93088cab521fc476f469966c7efdd581604051808273ffffffffffffffffffffffffffffffffffffffff1673ffffffffffffffffffffffffffffffffffffffff16815260200191505060405180910390a150565b6000809054906101000a900473ffffffffffffffffffffffffffffffffffffffff1681565b60026020528060005260406000206000915090505481565b6000806004600084600019166000191681526020019081526020016000205411610b0e57600354610b2b565b600460008360001916600019168152602001908152602001600020545b9050919050565b6000806000610b4085610ae2565b9150600082111515610be0576040517f08c379a000000000000000000000000000000000000000000000000000000000815260040180806020018281038252603c8152602001807f5468652061726269747261746f72206d7573742068617665207365742061206e81526020017f6f6e2d7a65726f2066656520666f7220746865207175657374696f6e0000000081525060400191505060405180910390fd5b34600260008760001916600019168152602001908152602001600020600082825401925050819055506002600086600019166000191681526020019081526020016000205490508181101515610d9f57600160009054906101000a900473ffffffffffffffffffffffffffffffffffffffff1673ffffffffffffffffffffffffffffffffffffffff1663f6a94ecb8633876040518463ffffffff167c01000000000000000000000000000000000000000000000000000000000281526004018084600019166000191681526020018373ffffffffffffffffffffffffffffffffffffffff1673ffffffffffffffffffffffffffffffffffffffff1681526020018281526020019350505050600060405180830381600087803b158015610d0557600080fd5b505af1158015610d19573d6000803e3d6000fd5b5050505084600019167fdf8a830581aa05b0b824a0c184007c33a1ad9100a41751c9ded9f2b4fefb16ba34336000604051808481526020018373ffffffffffffffffffffffffffffffffffffffff1673ffffffffffffffffffffffffffffffffffffffff168152602001828152602001935050505060405180910390a260019250610f8d565b600160009054906101000a900473ffffffffffffffffffffffffffffffffffffffff1673ffffffffffffffffffffffffffffffffffffffff16637f8d429e866040518263ffffffff167c0100000000000000000000000000000000000000000000000000000000028152600401808260001916600019168152602001915050602060405180830381600087803b158015610e3857600080fd5b505af1158015610e4c573d6000803e3d6000fd5b505050506040513d6020811015610e6257600080fd5b8101908080519060200190929190505050151515610f0e576040517f08c379a00000000000000000000000000000000000000000000000000000000081526004018080602001828103825260298152602001807f546865207175657374696f6e206d757374206e6f742068617665206265656e2081526020017f66696e616c697a6564000000000000000000000000000000000000000000000081525060400191505060405180910390fd5b84600019167fdf8a830581aa05b0b824a0c184007c33a1ad9100a41751c9ded9f2b4fefb16ba3433848603604051808481526020018373ffffffffffffffffffffffffffffffffffffffff1673ffffffffffffffffffffffffffffffffffffffff168152602001828152602001935050505060405180910390a2600092505b505092915050565b600160009054906101000a900473ffffffffffffffffffffffffffffffffffffffff1681565b6000809054906101000a900473ffffffffffffffffffffffffffffffffffffffff1673ffffffffffffffffffffffffffffffffffffffff163373ffffffffffffffffffffffffffffffffffffffff1614151561101657600080fd5b806005908051906020019061102c92919061133d565b5050565b6000809054906101000a900473ffffffffffffffffffffffffffffffffffffffff1673ffffffffffffffffffffffffffffffffffffffff163373ffffffffffffffffffffffffffffffffffffffff1614151561108b57600080fd5b600160009054906101000a900473ffffffffffffffffffffffffffffffffffffffff1673ffffffffffffffffffffffffffffffffffffffff16633ccfd60b6040518163ffffffff167c0100000000000000000000000000000000000000000000000000000000028152600401600060405180830381600087803b15801561111157600080fd5b505af1158015611125573d6000803e3d6000fd5b50505050565b6000809054906101000a900473ffffffffffffffffffffffffffffffffffffffff1673ffffffffffffffffffffffffffffffffffffffff163373ffffffffffffffffffffffffffffffffffffffff1614151561118657600080fd5b806000806101000a81548173ffffffffffffffffffffffffffffffffffffffff021916908373ffffffffffffffffffffffffffffffffffffffff16021790555050565b6000809054906101000a900473ffffffffffffffffffffffffffffffffffffffff1673ffffffffffffffffffffffffffffffffffffffff163373ffffffffffffffffffffffffffffffffffffffff1614151561122457600080fd5b60026000846000191660001916815260200190815260200160002060009055600160009054906101000a900473ffffffffffffffffffffffffffffffffffffffff1673ffffffffffffffffffffffffffffffffffffffff1663fe92049d8484846040518463ffffffff167c010000000000000000000000000000000000000000000000000000000002815260040180846000191660001916815260200183600019166000191681526020018273ffffffffffffffffffffffffffffffffffffffff1673ffffffffffffffffffffffffffffffffffffffff1681526020019350505050600060405180830381600087803b15801561132057600080fd5b505af1158015611334573d6000803e3d6000fd5b50505050505050565b828054600181600116156101000203166002900490600052602060002090601f016020900481019282601f1061137e57805160ff19168380011785556113ac565b828001600101855582156113ac579182015b828111156113ab578251825591602001919060010190611390565b5b5090506113b991906113bd565b5090565b6113df91905b808211156113db5760008160009055506001016113c3565b5090565b905600a165627a7a7230582063a5b5277ad1f76e9cc996a0ac7c5b61f9fe50b6698077286af51ea6d56c1ebf0029",
  "source": "pragma solidity ^0.4.25;\n\nimport './Owned.sol';\nimport './Realitio.sol';\n\ncontract Arbitrator is Owned {\n\n    Realitio public realitio;\n\n    mapping(bytes32 => uint256) public arbitration_bounties;\n\n    uint256 dispute_fee;\n    mapping(bytes32 => uint256) custom_dispute_fees;\n\n    string public metadata;\n\n    event LogRequestArbitration(\n        bytes32 indexed question_id,\n        uint256 fee_paid,\n        address requester,\n        uint256 remaining\n    );\n\n    event LogSetRealitio(\n        address realitio\n    );\n\n    event LogSetQuestionFee(\n        uint256 fee\n    );\n\n\n    event LogSetDisputeFee(\n        uint256 fee\n    );\n\n    event LogSetCustomDisputeFee(\n        bytes32 indexed question_id,\n        uint256 fee\n    );\n\n    /// @notice Constructor. Sets the deploying address as owner.\n    constructor() \n    public {\n        owner = msg.sender;\n    }\n\n    /// @notice Returns the Realitio contract address - deprecated in favour of realitio()\n    function realitycheck() \n    external view returns(Realitio) {\n        return realitio;\n    }\n\n    /// @notice Set the Reality Check contract address\n    /// @param addr The address of the Reality Check contract\n    function setRealitio(address addr) \n        onlyOwner \n    public {\n        realitio = Realitio(addr);\n        emit LogSetRealitio(addr);\n    }\n\n    /// @notice Set the default fee\n    /// @param fee The default fee amount\n    function setDisputeFee(uint256 fee) \n        onlyOwner \n    public {\n        dispute_fee = fee;\n        emit LogSetDisputeFee(fee);\n    }\n\n    /// @notice Set a custom fee for this particular question\n    /// @param question_id The question in question\n    /// @param fee The fee amount\n    function setCustomDisputeFee(bytes32 question_id, uint256 fee) \n        onlyOwner \n    public {\n        custom_dispute_fees[question_id] = fee;\n        emit LogSetCustomDisputeFee(question_id, fee);\n    }\n\n    /// @notice Return the dispute fee for the specified question. 0 indicates that we won't arbitrate it.\n    /// @param question_id The question in question\n    /// @dev Uses a general default, but can be over-ridden on a question-by-question basis.\n    function getDisputeFee(bytes32 question_id) \n    public view returns (uint256) {\n        return (custom_dispute_fees[question_id] > 0) ? custom_dispute_fees[question_id] : dispute_fee;\n    }\n\n    /// @notice Set a fee for asking a question with us as the arbitrator\n    /// @param fee The fee amount\n    /// @dev Default is no fee. Unlike the dispute fee, 0 is an acceptable setting.\n    /// You could set an impossibly high fee if you want to prevent us being used as arbitrator unless we submit the question.\n    /// (Submitting the question ourselves is not implemented here.)\n    /// This fee can be used as a revenue source, an anti-spam measure, or both.\n    function setQuestionFee(uint256 fee) \n        onlyOwner \n    public {\n        realitio.setQuestionFee(fee);\n        emit LogSetQuestionFee(fee);\n    }\n\n    /// @notice Submit the arbitrator's answer to a question.\n    /// @param question_id The question in question\n    /// @param answer The answer\n    /// @param answerer The answerer. If arbitration changed the answer, it should be the payer. If not, the old answerer.\n    function submitAnswerByArbitrator(bytes32 question_id, bytes32 answer, address answerer) \n        onlyOwner \n    public {\n        delete arbitration_bounties[question_id];\n        realitio.submitAnswerByArbitrator(question_id, answer, answerer);\n    }\n\n    /// @notice Request arbitration, freezing the question until we send submitAnswerByArbitrator\n    /// @dev The bounty can be paid only in part, in which case the last person to pay will be considered the payer\n    /// Will trigger an error if the notification fails, eg because the question has already been finalized\n    /// @param question_id The question in question\n    /// @param max_previous If specified, reverts if a bond higher than this was submitted after you sent your transaction.\n    function requestArbitration(bytes32 question_id, uint256 max_previous) \n    external payable returns (bool) {\n\n        uint256 arbitration_fee = getDisputeFee(question_id);\n        require(arbitration_fee > 0, \"The arbitrator must have set a non-zero fee for the question\");\n\n        arbitration_bounties[question_id] += msg.value;\n        uint256 paid = arbitration_bounties[question_id];\n\n        if (paid >= arbitration_fee) {\n            realitio.notifyOfArbitrationRequest(question_id, msg.sender, max_previous);\n            emit LogRequestArbitration(question_id, msg.value, msg.sender, 0);\n            return true;\n        } else {\n            require(!realitio.isFinalized(question_id), \"The question must not have been finalized\");\n            emit LogRequestArbitration(question_id, msg.value, msg.sender, arbitration_fee - paid);\n            return false;\n        }\n\n    }\n\n    /// @notice Withdraw any accumulated fees to the specified address\n    /// @param addr The address to which the balance should be sent\n    function withdraw(address addr) \n        onlyOwner \n    public {\n        addr.transfer(address(this).balance); \n    }\n\n    function() \n    external payable {\n    }\n\n    /// @notice Withdraw any accumulated question fees from the specified address into this contract\n    /// @dev Funds can then be liberated from this contract with our withdraw() function\n    function callWithdraw() \n        onlyOwner \n    public {\n        realitio.withdraw(); \n    }\n\n    /// @notice Set a metadata string, expected to be JSON, containing things like arbitrator TOS address\n    function setMetaData(string _metadata) \n        onlyOwner\n    public {\n        metadata = _metadata;\n    }\n\n}\n",
  "sourcePath": "/home/ed/working/MultiSigWallet/contracts/Arbitrator.sol",
  "compiler": {
    "name": "solc",
    "version": "0.4.25+commit.59dbf8f1.Emscripten.clang"
  },
  "schemaVersion": "3.0.0-beta.1",
  "updatedAt": "2018-11-07T06:26:45.769Z"
}