{
  "contractName": "BalanceHolder",
  "abi": [
    {
      "constant": true,
      "inputs": [
        {
          "name": "",
          "type": "address"
        }
      ],
      "name": "balanceOf",
      "outputs": [
        {
          "name": "",
          "type": "uint256"
        }
      ],
      "payable": false,
      "stateMutability": "view",
      "type": "function"
    },
    {
      "anonymous": false,
      "inputs": [
        {
          "indexed": true,
          "name": "user",
          "type": "address"
        },
        {
          "indexed": false,
          "name": "amount",
          "type": "uint256"
        }
      ],
      "name": "LogWithdraw",
      "type": "event"
    },
    {
      "constant": false,
      "inputs": [],
      "name": "withdraw",
      "outputs": [],
      "payable": false,
      "stateMutability": "nonpayable",
      "type": "function"
    }
  ],
  "bytecode": "0x608060405234801561001057600080fd5b50610222806100206000396000f30060806040526004361061004c576000357c0100000000000000000000000000000000000000000000000000000000900463ffffffff1680633ccfd60b1461005157806370a0823114610068575b600080fd5b34801561005d57600080fd5b506100666100bf565b005b34801561007457600080fd5b506100a9600480360381019080803573ffffffffffffffffffffffffffffffffffffffff1690602001909291905050506101de565b6040518082815260200191505060405180910390f35b60008060003373ffffffffffffffffffffffffffffffffffffffff1673ffffffffffffffffffffffffffffffffffffffff16815260200190815260200160002054905060008060003373ffffffffffffffffffffffffffffffffffffffff1673ffffffffffffffffffffffffffffffffffffffff168152602001908152602001600020819055503373ffffffffffffffffffffffffffffffffffffffff166108fc829081150290604051600060405180830381858888f1935050505015801561018c573d6000803e3d6000fd5b503373ffffffffffffffffffffffffffffffffffffffff167f4ce7033d118120e254016dccf195288400b28fc8936425acd5f17ce2df3ab708826040518082815260200191505060405180910390a250565b600060205280600052604060002060009150905054815600a165627a7a72305820665afbd29f579e5ab3c08636d95032ecc18aa8dba186844bf6c47d23210d80dc0029",
  "source": "pragma solidity ^0.4.18;\n\ncontract BalanceHolder {\n\n    mapping(address => uint256) public balanceOf;\n\n    event LogWithdraw(\n        address indexed user,\n        uint256 amount\n    );\n\n    function withdraw() \n    public {\n        uint256 bal = balanceOf[msg.sender];\n        balanceOf[msg.sender] = 0;\n        msg.sender.transfer(bal);\n        emit LogWithdraw(msg.sender, bal);\n    }\n\n}\n",
  "sourcePath": "/home/ed/working/MultiSigWallet/contracts/BalanceHolder.sol",
  "compiler": {
    "name": "solc",
    "version": "0.4.25+commit.59dbf8f1.Emscripten.clang"
  },
  "schemaVersion": "3.0.0-beta.1",
  "updatedAt": "2018-11-07T06:26:42.761Z"
}