{
  "contractName": "MultiSigWalletWithDailyLimit",
  "abi": [
    {
      "constant": true,
      "inputs": [
        {
          "name": "",
          "type": "uint256"
        }
      ],
      "name": "owners",
      "outputs": [
        {
          "name": "",
          "type": "address"
        }
      ],
      "payable": false,
      "stateMutability": "view",
      "type": "function",
      "signature": "0x025e7c27"
    },
    {
      "constant": false,
      "inputs": [
        {
          "name": "owner",
          "type": "address"
        }
      ],
      "name": "removeOwner",
      "outputs": [],
      "payable": false,
      "stateMutability": "nonpayable",
      "type": "function",
      "signature": "0x173825d9"
    },
    {
      "constant": false,
      "inputs": [
        {
          "name": "transactionId",
          "type": "uint256"
        }
      ],
      "name": "revokeConfirmation",
      "outputs": [],
      "payable": false,
      "stateMutability": "nonpayable",
      "type": "function",
      "signature": "0x20ea8d86"
    },
    {
      "constant": true,
      "inputs": [
        {
          "name": "",
          "type": "address"
        }
      ],
      "name": "isOwner",
      "outputs": [
        {
          "name": "",
          "type": "bool"
        }
      ],
      "payable": false,
      "stateMutability": "view",
      "type": "function",
      "signature": "0x2f54bf6e"
    },
    {
      "constant": true,
      "inputs": [
        {
          "name": "",
          "type": "uint256"
        },
        {
          "name": "",
          "type": "address"
        }
      ],
      "name": "confirmations",
      "outputs": [
        {
          "name": "",
          "type": "bool"
        }
      ],
      "payable": false,
      "stateMutability": "view",
      "type": "function",
      "signature": "0x3411c81c"
    },
    {
      "constant": true,
      "inputs": [
        {
          "name": "pending",
          "type": "bool"
        },
        {
          "name": "executed",
          "type": "bool"
        }
      ],
      "name": "getTransactionCount",
      "outputs": [
        {
          "name": "count",
          "type": "uint256"
        }
      ],
      "payable": false,
      "stateMutability": "view",
      "type": "function",
      "signature": "0x54741525"
    },
    {
      "constant": true,
      "inputs": [],
      "name": "dailyLimit",
      "outputs": [
        {
          "name": "",
          "type": "uint256"
        }
      ],
      "payable": false,
      "stateMutability": "view",
      "type": "function",
      "signature": "0x67eeba0c"
    },
    {
      "constant": true,
      "inputs": [],
      "name": "lastDay",
      "outputs": [
        {
          "name": "",
          "type": "uint256"
        }
      ],
      "payable": false,
      "stateMutability": "view",
      "type": "function",
      "signature": "0x6b0c932d"
    },
    {
      "constant": false,
      "inputs": [
        {
          "name": "owner",
          "type": "address"
        }
      ],
      "name": "addOwner",
      "outputs": [],
      "payable": false,
      "stateMutability": "nonpayable",
      "type": "function",
      "signature": "0x7065cb48"
    },
    {
      "constant": true,
      "inputs": [
        {
          "name": "transactionId",
          "type": "uint256"
        }
      ],
      "name": "isConfirmed",
      "outputs": [
        {
          "name": "",
          "type": "bool"
        }
      ],
      "payable": false,
      "stateMutability": "view",
      "type": "function",
      "signature": "0x784547a7"
    },
    {
      "constant": true,
      "inputs": [
        {
          "name": "transactionId",
          "type": "uint256"
        }
      ],
      "name": "getConfirmationCount",
      "outputs": [
        {
          "name": "count",
          "type": "uint256"
        }
      ],
      "payable": false,
      "stateMutability": "view",
      "type": "function",
      "signature": "0x8b51d13f"
    },
    {
      "constant": true,
      "inputs": [
        {
          "name": "",
          "type": "uint256"
        }
      ],
      "name": "transactions",
      "outputs": [
        {
          "name": "destination",
          "type": "address"
        },
        {
          "name": "value",
          "type": "uint256"
        },
        {
          "name": "data",
          "type": "bytes"
        },
        {
          "name": "executed",
          "type": "bool"
        }
      ],
      "payable": false,
      "stateMutability": "view",
      "type": "function",
      "signature": "0x9ace38c2"
    },
    {
      "constant": true,
      "inputs": [],
      "name": "getOwners",
      "outputs": [
        {
          "name": "",
          "type": "address[]"
        }
      ],
      "payable": false,
      "stateMutability": "view",
      "type": "function",
      "signature": "0xa0e67e2b"
    },
    {
      "constant": true,
      "inputs": [
        {
          "name": "from",
          "type": "uint256"
        },
        {
          "name": "to",
          "type": "uint256"
        },
        {
          "name": "pending",
          "type": "bool"
        },
        {
          "name": "executed",
          "type": "bool"
        }
      ],
      "name": "getTransactionIds",
      "outputs": [
        {
          "name": "_transactionIds",
          "type": "uint256[]"
        }
      ],
      "payable": false,
      "stateMutability": "view",
      "type": "function",
      "signature": "0xa8abe69a"
    },
    {
      "constant": true,
      "inputs": [
        {
          "name": "transactionId",
          "type": "uint256"
        }
      ],
      "name": "getConfirmations",
      "outputs": [
        {
          "name": "_confirmations",
          "type": "address[]"
        }
      ],
      "payable": false,
      "stateMutability": "view",
      "type": "function",
      "signature": "0xb5dc40c3"
    },
    {
      "constant": true,
      "inputs": [],
      "name": "transactionCount",
      "outputs": [
        {
          "name": "",
          "type": "uint256"
        }
      ],
      "payable": false,
      "stateMutability": "view",
      "type": "function",
      "signature": "0xb77bf600"
    },
    {
      "constant": false,
      "inputs": [
        {
          "name": "_required",
          "type": "uint256"
        }
      ],
      "name": "changeRequirement",
      "outputs": [],
      "payable": false,
      "stateMutability": "nonpayable",
      "type": "function",
      "signature": "0xba51a6df"
    },
    {
      "constant": false,
      "inputs": [
        {
          "name": "transactionId",
          "type": "uint256"
        }
      ],
      "name": "confirmTransaction",
      "outputs": [],
      "payable": false,
      "stateMutability": "nonpayable",
      "type": "function",
      "signature": "0xc01a8c84"
    },
    {
      "constant": false,
      "inputs": [
        {
          "name": "destination",
          "type": "address"
        },
        {
          "name": "value",
          "type": "uint256"
        },
        {
          "name": "data",
          "type": "bytes"
        }
      ],
      "name": "submitTransaction",
      "outputs": [
        {
          "name": "transactionId",
          "type": "uint256"
        }
      ],
      "payable": false,
      "stateMutability": "nonpayable",
      "type": "function",
      "signature": "0xc6427474"
    },
    {
      "constant": true,
      "inputs": [],
      "name": "MAX_OWNER_COUNT",
      "outputs": [
        {
          "name": "",
          "type": "uint256"
        }
      ],
      "payable": false,
      "stateMutability": "view",
      "type": "function",
      "signature": "0xd74f8edd"
    },
    {
      "constant": true,
      "inputs": [],
      "name": "required",
      "outputs": [
        {
          "name": "",
          "type": "uint256"
        }
      ],
      "payable": false,
      "stateMutability": "view",
      "type": "function",
      "signature": "0xdc8452cd"
    },
    {
      "constant": false,
      "inputs": [
        {
          "name": "owner",
          "type": "address"
        },
        {
          "name": "newOwner",
          "type": "address"
        }
      ],
      "name": "replaceOwner",
      "outputs": [],
      "payable": false,
      "stateMutability": "nonpayable",
      "type": "function",
      "signature": "0xe20056e6"
    },
    {
      "constant": true,
      "inputs": [],
      "name": "spentToday",
      "outputs": [
        {
          "name": "",
          "type": "uint256"
        }
      ],
      "payable": false,
      "stateMutability": "view",
      "type": "function",
      "signature": "0xf059cf2b"
    },
    {
      "inputs": [
        {
          "name": "_owners",
          "type": "address[]"
        },
        {
          "name": "_required",
          "type": "uint256"
        },
        {
          "name": "_dailyLimit",
          "type": "uint256"
        }
      ],
      "payable": false,
      "stateMutability": "nonpayable",
      "type": "constructor",
      "signature": "constructor"
    },
    {
      "payable": true,
      "stateMutability": "payable",
      "type": "fallback"
    },
    {
      "anonymous": false,
      "inputs": [
        {
          "indexed": false,
          "name": "dailyLimit",
          "type": "uint256"
        }
      ],
      "name": "DailyLimitChange",
      "type": "event",
      "signature": "0xc71bdc6afaf9b1aa90a7078191d4fc1adf3bf680fca3183697df6b0dc226bca2"
    },
    {
      "anonymous": false,
      "inputs": [
        {
          "indexed": true,
          "name": "sender",
          "type": "address"
        },
        {
          "indexed": true,
          "name": "transactionId",
          "type": "uint256"
        }
      ],
      "name": "Confirmation",
      "type": "event",
      "signature": "0x4a504a94899432a9846e1aa406dceb1bcfd538bb839071d49d1e5e23f5be30ef"
    },
    {
      "anonymous": false,
      "inputs": [
        {
          "indexed": true,
          "name": "sender",
          "type": "address"
        },
        {
          "indexed": true,
          "name": "transactionId",
          "type": "uint256"
        }
      ],
      "name": "Revocation",
      "type": "event",
      "signature": "0xf6a317157440607f36269043eb55f1287a5a19ba2216afeab88cd46cbcfb88e9"
    },
    {
      "anonymous": false,
      "inputs": [
        {
          "indexed": true,
          "name": "transactionId",
          "type": "uint256"
        }
      ],
      "name": "Submission",
      "type": "event",
      "signature": "0xc0ba8fe4b176c1714197d43b9cc6bcf797a4a7461c5fe8d0ef6e184ae7601e51"
    },
    {
      "anonymous": false,
      "inputs": [
        {
          "indexed": true,
          "name": "transactionId",
          "type": "uint256"
        }
      ],
      "name": "Execution",
      "type": "event",
      "signature": "0x33e13ecb54c3076d8e8bb8c2881800a4d972b792045ffae98fdf46df365fed75"
    },
    {
      "anonymous": false,
      "inputs": [
        {
          "indexed": true,
          "name": "transactionId",
          "type": "uint256"
        }
      ],
      "name": "ExecutionFailure",
      "type": "event",
      "signature": "0x526441bb6c1aba3c9a4a6ca1d6545da9c2333c8c48343ef398eb858d72b79236"
    },
    {
      "anonymous": false,
      "inputs": [
        {
          "indexed": true,
          "name": "sender",
          "type": "address"
        },
        {
          "indexed": false,
          "name": "value",
          "type": "uint256"
        }
      ],
      "name": "Deposit",
      "type": "event",
      "signature": "0xe1fffcc4923d04b559f4d29a8bfc6cda04eb5b0d3c460751c2402c5c5cc9109c"
    },
    {
      "anonymous": false,
      "inputs": [
        {
          "indexed": true,
          "name": "owner",
          "type": "address"
        }
      ],
      "name": "OwnerAddition",
      "type": "event",
      "signature": "0xf39e6e1eb0edcf53c221607b54b00cd28f3196fed0a24994dc308b8f611b682d"
    },
    {
      "anonymous": false,
      "inputs": [
        {
          "indexed": true,
          "name": "owner",
          "type": "address"
        }
      ],
      "name": "OwnerRemoval",
      "type": "event",
      "signature": "0x8001553a916ef2f495d26a907cc54d96ed840d7bda71e73194bf5a9df7a76b90"
    },
    {
      "anonymous": false,
      "inputs": [
        {
          "indexed": false,
          "name": "required",
          "type": "uint256"
        }
      ],
      "name": "RequirementChange",
      "type": "event",
      "signature": "0xa3f1ee9126a074d9326c682f561767f710e927faa811f7a99829d49dc421797a"
    },
    {
      "constant": false,
      "inputs": [
        {
          "name": "_dailyLimit",
          "type": "uint256"
        }
      ],
      "name": "changeDailyLimit",
      "outputs": [],
      "payable": false,
      "stateMutability": "nonpayable",
      "type": "function",
      "signature": "0xcea08621"
    },
    {
      "constant": false,
      "inputs": [
        {
          "name": "transactionId",
          "type": "uint256"
        }
      ],
      "name": "executeTransaction",
      "outputs": [],
      "payable": false,
      "stateMutability": "nonpayable",
      "type": "function",
      "signature": "0xee22610b"
    },
    {
      "constant": true,
      "inputs": [],
      "name": "calcMaxWithdraw",
      "outputs": [
        {
          "name": "",
          "type": "uint256"
        }
      ],
      "payable": false,
      "stateMutability": "view",
      "type": "function",
      "signature": "0x4bc9fdc2"
    }
  ],
  "bytecode": "0x60806040523480156200001157600080fd5b506040516200272f3803806200272f8339810180604052810190808051820192919060200180519060200190929190805190602001909291905050508282600082518260328211158015620000665750818111155b801562000074575060008114155b801562000082575060008214155b15156200008e57600080fd5b600092505b8451831015620001c957600260008685815181101515620000b057fe5b9060200190602002015173ffffffffffffffffffffffffffffffffffffffff1673ffffffffffffffffffffffffffffffffffffffff16815260200190815260200160002060009054906101000a900460ff161580156200013f5750600085848151811015156200011c57fe5b9060200190602002015173ffffffffffffffffffffffffffffffffffffffff1614155b15156200014b57600080fd5b60016002600087868151811015156200016057fe5b9060200190602002015173ffffffffffffffffffffffffffffffffffffffff1673ffffffffffffffffffffffffffffffffffffffff16815260200190815260200160002060006101000a81548160ff021916908315150217905550828060010193505062000093565b8460039080519060200190620001e1929190620001fe565b5083600481905550505050505080600681905550505050620002d3565b8280548282559060005260206000209081019282156200027a579160200282015b82811115620002795782518260006101000a81548173ffffffffffffffffffffffffffffffffffffffff021916908373ffffffffffffffffffffffffffffffffffffffff160217905550916020019190600101906200021f565b5b5090506200028991906200028d565b5090565b620002d091905b80821115620002cc57600081816101000a81549073ffffffffffffffffffffffffffffffffffffffff02191690555060010162000294565b5090565b90565b61244c80620002e36000396000f300608060405260043610610154576000357c0100000000000000000000000000000000000000000000000000000000900463ffffffff168063025e7c27146101ae578063173825d91461021b57806320ea8d861461025e5780632f54bf6e1461028b5780633411c81c146102e65780634bc9fdc21461034b578063547415251461037657806367eeba0c146103c55780636b0c932d146103f05780637065cb481461041b578063784547a71461045e5780638b51d13f146104a35780639ace38c2146104e4578063a0e67e2b146105cf578063a8abe69a1461063b578063b5dc40c3146106df578063b77bf60014610761578063ba51a6df1461078c578063c01a8c84146107b9578063c6427474146107e6578063cea086211461088d578063d74f8edd146108ba578063dc8452cd146108e5578063e20056e614610910578063ee22610b14610973578063f059cf2b146109a0575b60003411156101ac573373ffffffffffffffffffffffffffffffffffffffff167fe1fffcc4923d04b559f4d29a8bfc6cda04eb5b0d3c460751c2402c5c5cc9109c346040518082815260200191505060405180910390a25b005b3480156101ba57600080fd5b506101d9600480360381019080803590602001909291905050506109cb565b604051808273ffffffffffffffffffffffffffffffffffffffff1673ffffffffffffffffffffffffffffffffffffffff16815260200191505060405180910390f35b34801561022757600080fd5b5061025c600480360381019080803573ffffffffffffffffffffffffffffffffffffffff169060200190929190505050610a09565b005b34801561026a57600080fd5b5061028960048036038101908080359060200190929190505050610ca2565b005b34801561029757600080fd5b506102cc600480360381019080803573ffffffffffffffffffffffffffffffffffffffff169060200190929190505050610e4a565b604051808215151515815260200191505060405180910390f35b3480156102f257600080fd5b5061033160048036038101908080359060200190929190803573ffffffffffffffffffffffffffffffffffffffff169060200190929190505050610e6a565b604051808215151515815260200191505060405180910390f35b34801561035757600080fd5b50610360610e99565b6040518082815260200191505060405180910390f35b34801561038257600080fd5b506103af600480360381019080803515159060200190929190803515159060200190929190505050610ed6565b6040518082815260200191505060405180910390f35b3480156103d157600080fd5b506103da610f68565b6040518082815260200191505060405180910390f35b3480156103fc57600080fd5b50610405610f6e565b6040518082815260200191505060405180910390f35b34801561042757600080fd5b5061045c600480360381019080803573ffffffffffffffffffffffffffffffffffffffff169060200190929190505050610f74565b005b34801561046a57600080fd5b5061048960048036038101908080359060200190929190505050611179565b604051808215151515815260200191505060405180910390f35b3480156104af57600080fd5b506104ce6004803603810190808035906020019092919050505061125e565b6040518082815260200191505060405180910390f35b3480156104f057600080fd5b5061050f60048036038101908080359060200190929190505050611329565b604051808573ffffffffffffffffffffffffffffffffffffffff1673ffffffffffffffffffffffffffffffffffffffff1681526020018481526020018060200183151515158152602001828103825284818151815260200191508051906020019080838360005b83811015610591578082015181840152602081019050610576565b50505050905090810190601f1680156105be5780820380516001836020036101000a031916815260200191505b509550505050505060405180910390f35b3480156105db57600080fd5b506105e461141e565b6040518080602001828103825283818151815260200191508051906020019060200280838360005b8381101561062757808201518184015260208101905061060c565b505050509050019250505060405180910390f35b34801561064757600080fd5b5061068860048036038101908080359060200190929190803590602001909291908035151590602001909291908035151590602001909291905050506114ac565b6040518080602001828103825283818151815260200191508051906020019060200280838360005b838110156106cb5780820151818401526020810190506106b0565b505050509050019250505060405180910390f35b3480156106eb57600080fd5b5061070a6004803603810190808035906020019092919050505061161d565b6040518080602001828103825283818151815260200191508051906020019060200280838360005b8381101561074d578082015181840152602081019050610732565b505050509050019250505060405180910390f35b34801561076d57600080fd5b5061077661185a565b6040518082815260200191505060405180910390f35b34801561079857600080fd5b506107b760048036038101908080359060200190929190505050611860565b005b3480156107c557600080fd5b506107e46004803603810190808035906020019092919050505061191a565b005b3480156107f257600080fd5b50610877600480360381019080803573ffffffffffffffffffffffffffffffffffffffff16906020019092919080359060200190929190803590602001908201803590602001908080601f0160208091040260200160405190810160405280939291908181526020018383808284378201915050505050509192919290505050611af7565b6040518082815260200191505060405180910390f35b34801561089957600080fd5b506108b860048036038101908080359060200190929190505050611b16565b005b3480156108c657600080fd5b506108cf611b91565b6040518082815260200191505060405180910390f35b3480156108f157600080fd5b506108fa611b96565b6040518082815260200191505060405180910390f35b34801561091c57600080fd5b50610971600480360381019080803573ffffffffffffffffffffffffffffffffffffffff169060200190929190803573ffffffffffffffffffffffffffffffffffffffff169060200190929190505050611b9c565b005b34801561097f57600080fd5b5061099e60048036038101908080359060200190929190505050611eb1565b005b3480156109ac57600080fd5b506109b56121a5565b6040518082815260200191505060405180910390f35b6003818154811015156109da57fe5b906000526020600020016000915054906101000a900473ffffffffffffffffffffffffffffffffffffffff1681565b60003073ffffffffffffffffffffffffffffffffffffffff163373ffffffffffffffffffffffffffffffffffffffff16141515610a4557600080fd5b81600260008273ffffffffffffffffffffffffffffffffffffffff1673ffffffffffffffffffffffffffffffffffffffff16815260200190815260200160002060009054906101000a900460ff161515610a9e57600080fd5b6000600260008573ffffffffffffffffffffffffffffffffffffffff1673ffffffffffffffffffffffffffffffffffffffff16815260200190815260200160002060006101000a81548160ff021916908315150217905550600091505b600160038054905003821015610c23578273ffffffffffffffffffffffffffffffffffffffff16600383815481101515610b3157fe5b9060005260206000200160009054906101000a900473ffffffffffffffffffffffffffffffffffffffff1673ffffffffffffffffffffffffffffffffffffffff161415610c16576003600160038054905003815481101515610b8f57fe5b9060005260206000200160009054906101000a900473ffffffffffffffffffffffffffffffffffffffff16600383815481101515610bc957fe5b9060005260206000200160006101000a81548173ffffffffffffffffffffffffffffffffffffffff021916908373ffffffffffffffffffffffffffffffffffffffff160217905550610c23565b8180600101925050610afb565b6001600381818054905003915081610c3b919061234f565b506003805490506004541115610c5a57610c59600380549050611860565b5b8273ffffffffffffffffffffffffffffffffffffffff167f8001553a916ef2f495d26a907cc54d96ed840d7bda71e73194bf5a9df7a76b9060405160405180910390a2505050565b33600260008273ffffffffffffffffffffffffffffffffffffffff1673ffffffffffffffffffffffffffffffffffffffff16815260200190815260200160002060009054906101000a900460ff161515610cfb57600080fd5b81336001600083815260200190815260200160002060008273ffffffffffffffffffffffffffffffffffffffff1673ffffffffffffffffffffffffffffffffffffffff16815260200190815260200160002060009054906101000a900460ff161515610d6657600080fd5b8360008082815260200190815260200160002060030160009054906101000a900460ff16151515610d9657600080fd5b60006001600087815260200190815260200160002060003373ffffffffffffffffffffffffffffffffffffffff1673ffffffffffffffffffffffffffffffffffffffff16815260200190815260200160002060006101000a81548160ff021916908315150217905550843373ffffffffffffffffffffffffffffffffffffffff167ff6a317157440607f36269043eb55f1287a5a19ba2216afeab88cd46cbcfb88e960405160405180910390a35050505050565b60026020528060005260406000206000915054906101000a900460ff1681565b60016020528160005260406000206020528060005260406000206000915091509054906101000a900460ff1681565b60006201518060075401421115610eb4576006549050610ed3565b6008546006541015610ec95760009050610ed3565b6008546006540390505b90565b600080600090505b600554811015610f6157838015610f15575060008082815260200190815260200160002060030160009054906101000a900460ff16155b80610f485750828015610f47575060008082815260200190815260200160002060030160009054906101000a900460ff165b5b15610f54576001820191505b8080600101915050610ede565b5092915050565b60065481565b60075481565b3073ffffffffffffffffffffffffffffffffffffffff163373ffffffffffffffffffffffffffffffffffffffff16141515610fae57600080fd5b80600260008273ffffffffffffffffffffffffffffffffffffffff1673ffffffffffffffffffffffffffffffffffffffff16815260200190815260200160002060009054906101000a900460ff1615151561100857600080fd5b8160008173ffffffffffffffffffffffffffffffffffffffff161415151561102f57600080fd5b6001600380549050016004546032821115801561104c5750818111155b8015611059575060008114155b8015611066575060008214155b151561107157600080fd5b6001600260008773ffffffffffffffffffffffffffffffffffffffff1673ffffffffffffffffffffffffffffffffffffffff16815260200190815260200160002060006101000a81548160ff02191690831515021790555060038590806001815401808255809150509060018203906000526020600020016000909192909190916101000a81548173ffffffffffffffffffffffffffffffffffffffff021916908373ffffffffffffffffffffffffffffffffffffffff160217905550508473ffffffffffffffffffffffffffffffffffffffff167ff39e6e1eb0edcf53c221607b54b00cd28f3196fed0a24994dc308b8f611b682d60405160405180910390a25050505050565b6000806000809150600090505b600380549050811015611256576001600085815260200190815260200160002060006003838154811015156111b757fe5b9060005260206000200160009054906101000a900473ffffffffffffffffffffffffffffffffffffffff1673ffffffffffffffffffffffffffffffffffffffff1673ffffffffffffffffffffffffffffffffffffffff16815260200190815260200160002060009054906101000a900460ff1615611236576001820191505b6004548214156112495760019250611257565b8080600101915050611186565b5b5050919050565b600080600090505b6003805490508110156113235760016000848152602001908152602001600020600060038381548110151561129757fe5b9060005260206000200160009054906101000a900473ffffffffffffffffffffffffffffffffffffffff1673ffffffffffffffffffffffffffffffffffffffff1673ffffffffffffffffffffffffffffffffffffffff16815260200190815260200160002060009054906101000a900460ff1615611316576001820191505b8080600101915050611266565b50919050565b60006020528060005260406000206000915090508060000160009054906101000a900473ffffffffffffffffffffffffffffffffffffffff1690806001015490806002018054600181600116156101000203166002900480601f0160208091040260200160405190810160405280929190818152602001828054600181600116156101000203166002900480156114015780601f106113d657610100808354040283529160200191611401565b820191906000526020600020905b8154815290600101906020018083116113e457829003601f168201915b5050505050908060030160009054906101000a900460ff16905084565b606060038054806020026020016040519081016040528092919081815260200182805480156114a257602002820191906000526020600020905b8160009054906101000a900473ffffffffffffffffffffffffffffffffffffffff1673ffffffffffffffffffffffffffffffffffffffff1681526020019060010190808311611458575b5050505050905090565b6060806000806005546040519080825280602002602001820160405280156114e35781602001602082028038833980820191505090505b50925060009150600090505b60055481101561158f57858015611526575060008082815260200190815260200160002060030160009054906101000a900460ff16155b806115595750848015611558575060008082815260200190815260200160002060030160009054906101000a900460ff165b5b156115825780838381518110151561156d57fe5b90602001906020020181815250506001820191505b80806001019150506114ef565b8787036040519080825280602002602001820160405280156115c05781602001602082028038833980820191505090505b5093508790505b868110156116125782818151811015156115dd57fe5b90602001906020020151848983038151811015156115f757fe5b906020019060200201818152505080806001019150506115c7565b505050949350505050565b6060806000806003805490506040519080825280602002602001820160405280156116575781602001602082028038833980820191505090505b50925060009150600090505b6003805490508110156117a45760016000868152602001908152602001600020600060038381548110151561169457fe5b9060005260206000200160009054906101000a900473ffffffffffffffffffffffffffffffffffffffff1673ffffffffffffffffffffffffffffffffffffffff1673ffffffffffffffffffffffffffffffffffffffff16815260200190815260200160002060009054906101000a900460ff16156117975760038181548110151561171b57fe5b9060005260206000200160009054906101000a900473ffffffffffffffffffffffffffffffffffffffff16838381518110151561175457fe5b9060200190602002019073ffffffffffffffffffffffffffffffffffffffff16908173ffffffffffffffffffffffffffffffffffffffff16815250506001820191505b8080600101915050611663565b816040519080825280602002602001820160405280156117d35781602001602082028038833980820191505090505b509350600090505b818110156118525782818151811015156117f157fe5b90602001906020020151848281518110151561180957fe5b9060200190602002019073ffffffffffffffffffffffffffffffffffffffff16908173ffffffffffffffffffffffffffffffffffffffff168152505080806001019150506117db565b505050919050565b60055481565b3073ffffffffffffffffffffffffffffffffffffffff163373ffffffffffffffffffffffffffffffffffffffff1614151561189a57600080fd5b60038054905081603282111580156118b25750818111155b80156118bf575060008114155b80156118cc575060008214155b15156118d757600080fd5b826004819055507fa3f1ee9126a074d9326c682f561767f710e927faa811f7a99829d49dc421797a836040518082815260200191505060405180910390a1505050565b33600260008273ffffffffffffffffffffffffffffffffffffffff1673ffffffffffffffffffffffffffffffffffffffff16815260200190815260200160002060009054906101000a900460ff16151561197357600080fd5b81600080600083815260200190815260200160002060000160009054906101000a900473ffffffffffffffffffffffffffffffffffffffff1673ffffffffffffffffffffffffffffffffffffffff16141515156119cf57600080fd5b82336001600083815260200190815260200160002060008273ffffffffffffffffffffffffffffffffffffffff1673ffffffffffffffffffffffffffffffffffffffff16815260200190815260200160002060009054906101000a900460ff16151515611a3b57600080fd5b600180600087815260200190815260200160002060003373ffffffffffffffffffffffffffffffffffffffff1673ffffffffffffffffffffffffffffffffffffffff16815260200190815260200160002060006101000a81548160ff021916908315150217905550843373ffffffffffffffffffffffffffffffffffffffff167f4a504a94899432a9846e1aa406dceb1bcfd538bb839071d49d1e5e23f5be30ef60405160405180910390a3611af085611eb1565b5050505050565b6000611b048484846121ab565b9050611b0f8161191a565b9392505050565b3073ffffffffffffffffffffffffffffffffffffffff163373ffffffffffffffffffffffffffffffffffffffff16141515611b5057600080fd5b806006819055507fc71bdc6afaf9b1aa90a7078191d4fc1adf3bf680fca3183697df6b0dc226bca2816040518082815260200191505060405180910390a150565b603281565b60045481565b60003073ffffffffffffffffffffffffffffffffffffffff163373ffffffffffffffffffffffffffffffffffffffff16141515611bd857600080fd5b82600260008273ffffffffffffffffffffffffffffffffffffffff1673ffffffffffffffffffffffffffffffffffffffff16815260200190815260200160002060009054906101000a900460ff161515611c3157600080fd5b82600260008273ffffffffffffffffffffffffffffffffffffffff1673ffffffffffffffffffffffffffffffffffffffff16815260200190815260200160002060009054906101000a900460ff16151515611c8b57600080fd5b600092505b600380549050831015611d74578473ffffffffffffffffffffffffffffffffffffffff16600384815481101515611cc357fe5b9060005260206000200160009054906101000a900473ffffffffffffffffffffffffffffffffffffffff1673ffffffffffffffffffffffffffffffffffffffff161415611d675783600384815481101515611d1a57fe5b9060005260206000200160006101000a81548173ffffffffffffffffffffffffffffffffffffffff021916908373ffffffffffffffffffffffffffffffffffffffff160217905550611d74565b8280600101935050611c90565b6000600260008773ffffffffffffffffffffffffffffffffffffffff1673ffffffffffffffffffffffffffffffffffffffff16815260200190815260200160002060006101000a81548160ff0219169083151502179055506001600260008673ffffffffffffffffffffffffffffffffffffffff1673ffffffffffffffffffffffffffffffffffffffff16815260200190815260200160002060006101000a81548160ff0219169083151502179055508473ffffffffffffffffffffffffffffffffffffffff167f8001553a916ef2f495d26a907cc54d96ed840d7bda71e73194bf5a9df7a76b9060405160405180910390a28373ffffffffffffffffffffffffffffffffffffffff167ff39e6e1eb0edcf53c221607b54b00cd28f3196fed0a24994dc308b8f611b682d60405160405180910390a25050505050565b60008033600260008273ffffffffffffffffffffffffffffffffffffffff1673ffffffffffffffffffffffffffffffffffffffff16815260200190815260200160002060009054906101000a900460ff161515611f0d57600080fd5b83336001600083815260200190815260200160002060008273ffffffffffffffffffffffffffffffffffffffff1673ffffffffffffffffffffffffffffffffffffffff16815260200190815260200160002060009054906101000a900460ff161515611f7857600080fd5b8560008082815260200190815260200160002060030160009054906101000a900460ff16151515611fa857600080fd5b6000808881526020019081526020016000209550611fc587611179565b945084806120005750600086600201805460018160011615610100020316600290049050148015611fff5750611ffe86600101546122fd565b5b5b1561219c5760018660030160006101000a81548160ff02191690831515021790555084151561203e5785600101546008600082825401925050819055505b8560000160009054906101000a900473ffffffffffffffffffffffffffffffffffffffff1673ffffffffffffffffffffffffffffffffffffffff1686600101548760020160405180828054600181600116156101000203166002900480156120e75780601f106120bc576101008083540402835291602001916120e7565b820191906000526020600020905b8154815290600101906020018083116120ca57829003601f168201915b505091505060006040518083038185875af1925050501561213457867f33e13ecb54c3076d8e8bb8c2881800a4d972b792045ffae98fdf46df365fed7560405160405180910390a261219b565b867f526441bb6c1aba3c9a4a6ca1d6545da9c2333c8c48343ef398eb858d72b7923660405160405180910390a260008660030160006101000a81548160ff02191690831515021790555084151561219a5785600101546008600082825403925050819055505b5b5b50505050505050565b60085481565b60008360008173ffffffffffffffffffffffffffffffffffffffff16141515156121d457600080fd5b60055491506080604051908101604052808673ffffffffffffffffffffffffffffffffffffffff1681526020018581526020018481526020016000151581525060008084815260200190815260200160002060008201518160000160006101000a81548173ffffffffffffffffffffffffffffffffffffffff021916908373ffffffffffffffffffffffffffffffffffffffff16021790555060208201518160010155604082015181600201908051906020019061229392919061237b565b5060608201518160030160006101000a81548160ff0219169083151502179055509050506001600560008282540192505081905550817fc0ba8fe4b176c1714197d43b9cc6bcf797a4a7461c5fe8d0ef6e184ae7601e5160405160405180910390a2509392505050565b6000620151806007540142111561231e574260078190555060006008819055505b6006548260085401118061233757506008548260085401105b15612345576000905061234a565b600190505b919050565b8154818355818111156123765781836000526020600020918201910161237591906123fb565b5b505050565b828054600181600116156101000203166002900490600052602060002090601f016020900481019282601f106123bc57805160ff19168380011785556123ea565b828001600101855582156123ea579182015b828111156123e95782518255916020019190600101906123ce565b5b5090506123f791906123fb565b5090565b61241d91905b80821115612419576000816000905550600101612401565b5090565b905600a165627a7a723058200330d5d31f82242d462fdaedea35b4375001af60a03ab4e1a03d02d57c5319b20029",
  "source": "pragma solidity ^0.4.15;\nimport \"./MultiSigWallet.sol\";\n\n\n/// @title Multisignature wallet with daily limit - Allows an owner to withdraw a daily limit without multisig.\n/// @author Stefan George - <stefan.george@consensys.net>\ncontract MultiSigWalletWithDailyLimit is MultiSigWallet {\n\n    /*\n     *  Events\n     */\n    event DailyLimitChange(uint dailyLimit);\n\n    /*\n     *  Storage\n     */\n    uint public dailyLimit;\n    uint public lastDay;\n    uint public spentToday;\n\n    /*\n     * Public functions\n     */\n    /// @dev Contract constructor sets initial owners, required number of confirmations and daily withdraw limit.\n    /// @param _owners List of initial owners.\n    /// @param _required Number of required confirmations.\n    /// @param _dailyLimit Amount in wei, which can be withdrawn without confirmations on a daily basis.\n    function MultiSigWalletWithDailyLimit(address[] _owners, uint _required, uint _dailyLimit)\n        public\n        MultiSigWallet(_owners, _required)\n    {\n        dailyLimit = _dailyLimit;\n    }\n\n    /// @dev Allows to change the daily limit. Transaction has to be sent by wallet.\n    /// @param _dailyLimit Amount in wei.\n    function changeDailyLimit(uint _dailyLimit)\n        public\n        onlyWallet\n    {\n        dailyLimit = _dailyLimit;\n        DailyLimitChange(_dailyLimit);\n    }\n\n    /// @dev Allows anyone to execute a confirmed transaction or ether withdraws until daily limit is reached.\n    /// @param transactionId Transaction ID.\n    function executeTransaction(uint transactionId)\n        public\n        ownerExists(msg.sender)\n        confirmed(transactionId, msg.sender)\n        notExecuted(transactionId)\n    {\n        Transaction storage txn = transactions[transactionId];\n        bool _confirmed = isConfirmed(transactionId);\n        if (_confirmed || txn.data.length == 0 && isUnderLimit(txn.value)) {\n            txn.executed = true;\n            if (!_confirmed)\n                spentToday += txn.value;\n            if (txn.destination.call.value(txn.value)(txn.data))\n                Execution(transactionId);\n            else {\n                ExecutionFailure(transactionId);\n                txn.executed = false;\n                if (!_confirmed)\n                    spentToday -= txn.value;\n            }\n        }\n    }\n\n    /*\n     * Internal functions\n     */\n    /// @dev Returns if amount is within daily limit and resets spentToday after one day.\n    /// @param amount Amount to withdraw.\n    /// @return Returns if amount is under daily limit.\n    function isUnderLimit(uint amount)\n        internal\n        returns (bool)\n    {\n        if (now > lastDay + 24 hours) {\n            lastDay = now;\n            spentToday = 0;\n        }\n        if (spentToday + amount > dailyLimit || spentToday + amount < spentToday)\n            return false;\n        return true;\n    }\n\n    /*\n     * Web3 call functions\n     */\n    /// @dev Returns maximum withdraw amount.\n    /// @return Returns amount.\n    function calcMaxWithdraw()\n        public\n        constant\n        returns (uint)\n    {\n        if (now > lastDay + 24 hours)\n            return dailyLimit;\n        if (dailyLimit < spentToday)\n            return 0;\n        return dailyLimit - spentToday;\n    }\n}\n",
  "sourcePath": "/home/ed/working/MultiSigWallet/contracts/MultiSigWalletWithDailyLimit.sol",
  "compiler": {
    "name": "solc",
    "version": "0.4.25+commit.59dbf8f1.Emscripten.clang"
  },
  "schemaVersion": "3.0.0-beta.1",
  "updatedAt": "2018-10-23T05:10:51.033Z"
}