{
  "contractName": "Realitio",
  "abi": [
    {
      "constant": false,
      "inputs": [],
      "name": "withdraw",
      "outputs": [],
      "payable": false,
      "stateMutability": "nonpayable",
      "type": "function"
    },
    {
      "constant": true,
      "inputs": [
        {
          "name": "",
          "type": "uint256"
        }
      ],
      "name": "template_hashes",
      "outputs": [
        {
          "name": "",
          "type": "bytes32"
        }
      ],
      "payable": false,
      "stateMutability": "view",
      "type": "function"
    },
    {
      "constant": true,
      "inputs": [
        {
          "name": "",
          "type": "bytes32"
        }
      ],
      "name": "question_claims",
      "outputs": [
        {
          "name": "payee",
          "type": "address"
        },
        {
          "name": "last_bond",
          "type": "uint256"
        },
        {
          "name": "queued_funds",
          "type": "uint256"
        }
      ],
      "payable": false,
      "stateMutability": "view",
      "type": "function"
    },
    {
      "constant": true,
      "inputs": [
        {
          "name": "",
          "type": "address"
        }
      ],
      "name": "arbitrator_question_fees",
      "outputs": [
        {
          "name": "",
          "type": "uint256"
        }
      ],
      "payable": false,
      "stateMutability": "view",
      "type": "function"
    },
    {
      "constant": true,
      "inputs": [
        {
          "name": "",
          "type": "address"
        }
      ],
      "name": "balanceOf",
      "outputs": [
        {
          "name": "",
          "type": "uint256"
        }
      ],
      "payable": false,
      "stateMutability": "view",
      "type": "function"
    },
    {
      "constant": true,
      "inputs": [
        {
          "name": "",
          "type": "bytes32"
        }
      ],
      "name": "commitments",
      "outputs": [
        {
          "name": "reveal_ts",
          "type": "uint32"
        },
        {
          "name": "is_revealed",
          "type": "bool"
        },
        {
          "name": "revealed_answer",
          "type": "bytes32"
        }
      ],
      "payable": false,
      "stateMutability": "view",
      "type": "function"
    },
    {
      "constant": true,
      "inputs": [
        {
          "name": "",
          "type": "bytes32"
        }
      ],
      "name": "questions",
      "outputs": [
        {
          "name": "content_hash",
          "type": "bytes32"
        },
        {
          "name": "arbitrator",
          "type": "address"
        },
        {
          "name": "opening_ts",
          "type": "uint32"
        },
        {
          "name": "timeout",
          "type": "uint32"
        },
        {
          "name": "finalize_ts",
          "type": "uint32"
        },
        {
          "name": "is_pending_arbitration",
          "type": "bool"
        },
        {
          "name": "bounty",
          "type": "uint256"
        },
        {
          "name": "best_answer",
          "type": "bytes32"
        },
        {
          "name": "history_hash",
          "type": "bytes32"
        },
        {
          "name": "bond",
          "type": "uint256"
        }
      ],
      "payable": false,
      "stateMutability": "view",
      "type": "function"
    },
    {
      "constant": true,
      "inputs": [
        {
          "name": "",
          "type": "uint256"
        }
      ],
      "name": "templates",
      "outputs": [
        {
          "name": "",
          "type": "uint256"
        }
      ],
      "payable": false,
      "stateMutability": "view",
      "type": "function"
    },
    {
      "inputs": [],
      "payable": false,
      "stateMutability": "nonpayable",
      "type": "constructor"
    },
    {
      "anonymous": false,
      "inputs": [
        {
          "indexed": false,
          "name": "arbitrator",
          "type": "address"
        },
        {
          "indexed": false,
          "name": "amount",
          "type": "uint256"
        }
      ],
      "name": "LogSetQuestionFee",
      "type": "event"
    },
    {
      "anonymous": false,
      "inputs": [
        {
          "indexed": true,
          "name": "template_id",
          "type": "uint256"
        },
        {
          "indexed": true,
          "name": "user",
          "type": "address"
        },
        {
          "indexed": false,
          "name": "question_text",
          "type": "string"
        }
      ],
      "name": "LogNewTemplate",
      "type": "event"
    },
    {
      "anonymous": false,
      "inputs": [
        {
          "indexed": true,
          "name": "question_id",
          "type": "bytes32"
        },
        {
          "indexed": true,
          "name": "user",
          "type": "address"
        },
        {
          "indexed": false,
          "name": "template_id",
          "type": "uint256"
        },
        {
          "indexed": false,
          "name": "question",
          "type": "string"
        },
        {
          "indexed": true,
          "name": "content_hash",
          "type": "bytes32"
        },
        {
          "indexed": false,
          "name": "arbitrator",
          "type": "address"
        },
        {
          "indexed": false,
          "name": "timeout",
          "type": "uint32"
        },
        {
          "indexed": false,
          "name": "opening_ts",
          "type": "uint32"
        },
        {
          "indexed": false,
          "name": "nonce",
          "type": "uint256"
        },
        {
          "indexed": false,
          "name": "created",
          "type": "uint256"
        }
      ],
      "name": "LogNewQuestion",
      "type": "event"
    },
    {
      "anonymous": false,
      "inputs": [
        {
          "indexed": true,
          "name": "question_id",
          "type": "bytes32"
        },
        {
          "indexed": false,
          "name": "bounty_added",
          "type": "uint256"
        },
        {
          "indexed": false,
          "name": "bounty",
          "type": "uint256"
        },
        {
          "indexed": true,
          "name": "user",
          "type": "address"
        }
      ],
      "name": "LogFundAnswerBounty",
      "type": "event"
    },
    {
      "anonymous": false,
      "inputs": [
        {
          "indexed": false,
          "name": "answer",
          "type": "bytes32"
        },
        {
          "indexed": true,
          "name": "question_id",
          "type": "bytes32"
        },
        {
          "indexed": false,
          "name": "history_hash",
          "type": "bytes32"
        },
        {
          "indexed": true,
          "name": "user",
          "type": "address"
        },
        {
          "indexed": false,
          "name": "bond",
          "type": "uint256"
        },
        {
          "indexed": false,
          "name": "ts",
          "type": "uint256"
        },
        {
          "indexed": false,
          "name": "is_commitment",
          "type": "bool"
        }
      ],
      "name": "LogNewAnswer",
      "type": "event"
    },
    {
      "anonymous": false,
      "inputs": [
        {
          "indexed": true,
          "name": "question_id",
          "type": "bytes32"
        },
        {
          "indexed": true,
          "name": "user",
          "type": "address"
        },
        {
          "indexed": true,
          "name": "answer_hash",
          "type": "bytes32"
        },
        {
          "indexed": false,
          "name": "answer",
          "type": "bytes32"
        },
        {
          "indexed": false,
          "name": "nonce",
          "type": "uint256"
        },
        {
          "indexed": false,
          "name": "bond",
          "type": "uint256"
        }
      ],
      "name": "LogAnswerReveal",
      "type": "event"
    },
    {
      "anonymous": false,
      "inputs": [
        {
          "indexed": true,
          "name": "question_id",
          "type": "bytes32"
        },
        {
          "indexed": true,
          "name": "user",
          "type": "address"
        }
      ],
      "name": "LogNotifyOfArbitrationRequest",
      "type": "event"
    },
    {
      "anonymous": false,
      "inputs": [
        {
          "indexed": true,
          "name": "question_id",
          "type": "bytes32"
        },
        {
          "indexed": true,
          "name": "answer",
          "type": "bytes32"
        }
      ],
      "name": "LogFinalize",
      "type": "event"
    },
    {
      "anonymous": false,
      "inputs": [
        {
          "indexed": true,
          "name": "question_id",
          "type": "bytes32"
        },
        {
          "indexed": true,
          "name": "user",
          "type": "address"
        },
        {
          "indexed": false,
          "name": "amount",
          "type": "uint256"
        }
      ],
      "name": "LogClaim",
      "type": "event"
    },
    {
      "anonymous": false,
      "inputs": [
        {
          "indexed": true,
          "name": "user",
          "type": "address"
        },
        {
          "indexed": false,
          "name": "amount",
          "type": "uint256"
        }
      ],
      "name": "LogWithdraw",
      "type": "event"
    },
    {
      "constant": false,
      "inputs": [
        {
          "name": "fee",
          "type": "uint256"
        }
      ],
      "name": "setQuestionFee",
      "outputs": [],
      "payable": false,
      "stateMutability": "nonpayable",
      "type": "function"
    },
    {
      "constant": false,
      "inputs": [
        {
          "name": "content",
          "type": "string"
        }
      ],
      "name": "createTemplate",
      "outputs": [
        {
          "name": "",
          "type": "uint256"
        }
      ],
      "payable": false,
      "stateMutability": "nonpayable",
      "type": "function"
    },
    {
      "constant": false,
      "inputs": [
        {
          "name": "content",
          "type": "string"
        },
        {
          "name": "question",
          "type": "string"
        },
        {
          "name": "arbitrator",
          "type": "address"
        },
        {
          "name": "timeout",
          "type": "uint32"
        },
        {
          "name": "opening_ts",
          "type": "uint32"
        },
        {
          "name": "nonce",
          "type": "uint256"
        }
      ],
      "name": "createTemplateAndAskQuestion",
      "outputs": [
        {
          "name": "",
          "type": "bytes32"
        }
      ],
      "payable": true,
      "stateMutability": "payable",
      "type": "function"
    },
    {
      "constant": false,
      "inputs": [
        {
          "name": "template_id",
          "type": "uint256"
        },
        {
          "name": "question",
          "type": "string"
        },
        {
          "name": "arbitrator",
          "type": "address"
        },
        {
          "name": "timeout",
          "type": "uint32"
        },
        {
          "name": "opening_ts",
          "type": "uint32"
        },
        {
          "name": "nonce",
          "type": "uint256"
        }
      ],
      "name": "askQuestion",
      "outputs": [
        {
          "name": "",
          "type": "bytes32"
        }
      ],
      "payable": true,
      "stateMutability": "payable",
      "type": "function"
    },
    {
      "constant": false,
      "inputs": [
        {
          "name": "question_id",
          "type": "bytes32"
        }
      ],
      "name": "fundAnswerBounty",
      "outputs": [],
      "payable": true,
      "stateMutability": "payable",
      "type": "function"
    },
    {
      "constant": false,
      "inputs": [
        {
          "name": "question_id",
          "type": "bytes32"
        },
        {
          "name": "answer",
          "type": "bytes32"
        },
        {
          "name": "max_previous",
          "type": "uint256"
        }
      ],
      "name": "submitAnswer",
      "outputs": [],
      "payable": true,
      "stateMutability": "payable",
      "type": "function"
    },
    {
      "constant": false,
      "inputs": [
        {
          "name": "question_id",
          "type": "bytes32"
        },
        {
          "name": "answer_hash",
          "type": "bytes32"
        },
        {
          "name": "max_previous",
          "type": "uint256"
        },
        {
          "name": "_answerer",
          "type": "address"
        }
      ],
      "name": "submitAnswerCommitment",
      "outputs": [],
      "payable": true,
      "stateMutability": "payable",
      "type": "function"
    },
    {
      "constant": false,
      "inputs": [
        {
          "name": "question_id",
          "type": "bytes32"
        },
        {
          "name": "answer",
          "type": "bytes32"
        },
        {
          "name": "nonce",
          "type": "uint256"
        },
        {
          "name": "bond",
          "type": "uint256"
        }
      ],
      "name": "submitAnswerReveal",
      "outputs": [],
      "payable": false,
      "stateMutability": "nonpayable",
      "type": "function"
    },
    {
      "constant": false,
      "inputs": [
        {
          "name": "question_id",
          "type": "bytes32"
        },
        {
          "name": "requester",
          "type": "address"
        },
        {
          "name": "max_previous",
          "type": "uint256"
        }
      ],
      "name": "notifyOfArbitrationRequest",
      "outputs": [],
      "payable": false,
      "stateMutability": "nonpayable",
      "type": "function"
    },
    {
      "constant": false,
      "inputs": [
        {
          "name": "question_id",
          "type": "bytes32"
        },
        {
          "name": "answer",
          "type": "bytes32"
        },
        {
          "name": "answerer",
          "type": "address"
        }
      ],
      "name": "submitAnswerByArbitrator",
      "outputs": [],
      "payable": false,
      "stateMutability": "nonpayable",
      "type": "function"
    },
    {
      "constant": true,
      "inputs": [
        {
          "name": "question_id",
          "type": "bytes32"
        }
      ],
      "name": "isFinalized",
      "outputs": [
        {
          "name": "",
          "type": "bool"
        }
      ],
      "payable": false,
      "stateMutability": "view",
      "type": "function"
    },
    {
      "constant": true,
      "inputs": [
        {
          "name": "question_id",
          "type": "bytes32"
        }
      ],
      "name": "getFinalAnswer",
      "outputs": [
        {
          "name": "",
          "type": "bytes32"
        }
      ],
      "payable": false,
      "stateMutability": "view",
      "type": "function"
    },
    {
      "constant": true,
      "inputs": [
        {
          "name": "question_id",
          "type": "bytes32"
        }
      ],
      "name": "resultFor",
      "outputs": [
        {
          "name": "",
          "type": "bytes32"
        }
      ],
      "payable": false,
      "stateMutability": "view",
      "type": "function"
    },
    {
      "constant": true,
      "inputs": [
        {
          "name": "question_id",
          "type": "bytes32"
        },
        {
          "name": "content_hash",
          "type": "bytes32"
        },
        {
          "name": "arbitrator",
          "type": "address"
        },
        {
          "name": "min_timeout",
          "type": "uint32"
        },
        {
          "name": "min_bond",
          "type": "uint256"
        }
      ],
      "name": "getFinalAnswerIfMatches",
      "outputs": [
        {
          "name": "",
          "type": "bytes32"
        }
      ],
      "payable": false,
      "stateMutability": "view",
      "type": "function"
    },
    {
      "constant": false,
      "inputs": [
        {
          "name": "question_id",
          "type": "bytes32"
        },
        {
          "name": "history_hashes",
          "type": "bytes32[]"
        },
        {
          "name": "addrs",
          "type": "address[]"
        },
        {
          "name": "bonds",
          "type": "uint256[]"
        },
        {
          "name": "answers",
          "type": "bytes32[]"
        }
      ],
      "name": "claimWinnings",
      "outputs": [],
      "payable": false,
      "stateMutability": "nonpayable",
      "type": "function"
    },
    {
      "constant": false,
      "inputs": [
        {
          "name": "question_ids",
          "type": "bytes32[]"
        },
        {
          "name": "lengths",
          "type": "uint256[]"
        },
        {
          "name": "hist_hashes",
          "type": "bytes32[]"
        },
        {
          "name": "addrs",
          "type": "address[]"
        },
        {
          "name": "bonds",
          "type": "uint256[]"
        },
        {
          "name": "answers",
          "type": "bytes32[]"
        }
      ],
      "name": "claimMultipleAndWithdrawBalance",
      "outputs": [],
      "payable": false,
      "stateMutability": "nonpayable",
      "type": "function"
    },
    {
      "constant": true,
      "inputs": [
        {
          "name": "question_id",
          "type": "bytes32"
        }
      ],
      "name": "getContentHash",
      "outputs": [
        {
          "name": "",
          "type": "bytes32"
        }
      ],
      "payable": false,
      "stateMutability": "view",
      "type": "function"
    },
    {
      "constant": true,
      "inputs": [
        {
          "name": "question_id",
          "type": "bytes32"
        }
      ],
      "name": "getArbitrator",
      "outputs": [
        {
          "name": "",
          "type": "address"
        }
      ],
      "payable": false,
      "stateMutability": "view",
      "type": "function"
    },
    {
      "constant": true,
      "inputs": [
        {
          "name": "question_id",
          "type": "bytes32"
        }
      ],
      "name": "getOpeningTS",
      "outputs": [
        {
          "name": "",
          "type": "uint32"
        }
      ],
      "payable": false,
      "stateMutability": "view",
      "type": "function"
    },
    {
      "constant": true,
      "inputs": [
        {
          "name": "question_id",
          "type": "bytes32"
        }
      ],
      "name": "getTimeout",
      "outputs": [
        {
          "name": "",
          "type": "uint32"
        }
      ],
      "payable": false,
      "stateMutability": "view",
      "type": "function"
    },
    {
      "constant": true,
      "inputs": [
        {
          "name": "question_id",
          "type": "bytes32"
        }
      ],
      "name": "getFinalizeTS",
      "outputs": [
        {
          "name": "",
          "type": "uint32"
        }
      ],
      "payable": false,
      "stateMutability": "view",
      "type": "function"
    },
    {
      "constant": true,
      "inputs": [
        {
          "name": "question_id",
          "type": "bytes32"
        }
      ],
      "name": "isPendingArbitration",
      "outputs": [
        {
          "name": "",
          "type": "bool"
        }
      ],
      "payable": false,
      "stateMutability": "view",
      "type": "function"
    },
    {
      "constant": true,
      "inputs": [
        {
          "name": "question_id",
          "type": "bytes32"
        }
      ],
      "name": "getBounty",
      "outputs": [
        {
          "name": "",
          "type": "uint256"
        }
      ],
      "payable": false,
      "stateMutability": "view",
      "type": "function"
    },
    {
      "constant": true,
      "inputs": [
        {
          "name": "question_id",
          "type": "bytes32"
        }
      ],
      "name": "getBestAnswer",
      "outputs": [
        {
          "name": "",
          "type": "bytes32"
        }
      ],
      "payable": false,
      "stateMutability": "view",
      "type": "function"
    },
    {
      "constant": true,
      "inputs": [
        {
          "name": "question_id",
          "type": "bytes32"
        }
      ],
      "name": "getHistoryHash",
      "outputs": [
        {
          "name": "",
          "type": "bytes32"
        }
      ],
      "payable": false,
      "stateMutability": "view",
      "type": "function"
    },
    {
      "constant": true,
      "inputs": [
        {
          "name": "question_id",
          "type": "bytes32"
        }
      ],
      "name": "getBond",
      "outputs": [
        {
          "name": "",
          "type": "uint256"
        }
      ],
      "payable": false,
      "stateMutability": "view",
      "type": "function"
    }
  ],
  "bytecode": "0x608060405260006001553480156200001657600080fd5b506200008d606060405190810160405280603f81526020017f7b227469746c65223a20222573222c202274797065223a2022626f6f6c222c2081526020017f2263617465676f7279223a20222573222c20226c616e67223a20222573227d0081525062000308640100000000026401000000009004565b506200012a608060405190810160405280604f81526020017f7b227469746c65223a20222573222c202274797065223a202275696e74222c2081526020017f22646563696d616c73223a2031382c202263617465676f7279223a202225732281526020017f2c20226c616e67223a20222573227d000000000000000000000000000000000081525062000308640100000000026401000000009004565b50620001c7608060405190810160405280605a81526020017f7b227469746c65223a20222573222c202274797065223a202273696e676c652d81526020017f73656c656374222c20226f7574636f6d6573223a205b25735d2c20226361746581526020017f676f7279223a20222573222c20226c616e67223a20222573227d00000000000081525062000308640100000000026401000000009004565b5062000264608060405190810160405280605c81526020017f7b227469746c65223a20222573222c202274797065223a20226d756c7469706c81526020017f652d73656c656374222c20226f7574636f6d6573223a205b25735d2c2022636181526020017f7465676f7279223a20222573222c20226c616e67223a20222573227d0000000081525062000308640100000000026401000000009004565b5062000301608060405190810160405280604381526020017f7b227469746c65223a20222573222c202274797065223a20226461746574696d81526020017f65222c202263617465676f7279223a20222573222c20226c616e67223a20222581526020017f73227d000000000000000000000000000000000000000000000000000000000081525062000308640100000000026401000000009004565b506200051f565b6000806001549050436002600083815260200190815260200160002081905550826040516020018082805190602001908083835b6020831015156200036357805182526020820191506020810190506020830392506200033c565b6001836020036101000a0380198251168184511680821785525050505050509050019150506040516020818303038152906040526040518082805190602001908083835b602083101515620003ce5780518252602082019150602081019050602083039250620003a7565b6001836020036101000a03801982511681845116808217855250505050505090500191505060405180910390206003600083815260200190815260200160002081600019169055503373ffffffffffffffffffffffffffffffffffffffff16817fb87fb721c0a557bb8dff89a86796466931d82ba530a66a239263eb8735ade2e4856040518080602001828103825283818151815260200191508051906020019080838360005b838110156200049257808201518184015260208101905062000475565b50505050905090810190601f168015620004c05780820380516001836020036101000a031916815260200191505b509250505060405180910390a3620004f1600182620005006401000000000262004cbb179091906401000000009004565b60018190555080915050919050565b60008082840190508381101515156200051557fe5b8091505092915050565b6158a4806200052f6000396000f3006080604052600436106101ac576000357c0100000000000000000000000000000000000000000000000000000000900463ffffffff1680631101a0fd146101b157806312a203c3146102ee5780632417395c146103835780632518904c146103c857806326d6c97b1461043957806328828b1e1461047e5780633ccfd60b146106335780634dc266b41461064a5780634df6ca2a1461069d5780634e60f883146106ca57806351577ea914610713578063590158a71461076057806359245ff3146107df5780636fa427421461080357806370a082311461085a578063762c38fd146108b157806377f325df1461097d5780637f8d429e146109b957806382ffa9f714610a02578063839df94514610a4f57806383bf460914610aba5780638d552d4614610b37578063924532fb14610b8457806395addb9014610bcd5780639e63fa6a14610cbd5780639f1025c614610d0e578063a1130d0414610d5f578063a462fb7b14610e67578063acae8f4e14610eb4578063bc52565214610f05578063d09cc57e14610f46578063d7cff98614610f93578063f6a94ecb14610fef578063fe92049d1461104a575b600080fd5b3480156101bd57600080fd5b506102ec6004803603810190808035600019169060200190929190803590602001908201803590602001908080602002602001604051908101604052809392919081815260200183836020028082843782019150505050505091929192908035906020019082018035906020019080806020026020016040519081016040528093929190818152602001838360200280828437820191505050505050919291929080359060200190820180359060200190808060200260200160405190810160405280939291908181526020018383602002808284378201915050505050509192919290803590602001908201803590602001908080602002602001604051908101604052809392919081815260200183836020028082843782019150505050505091929192905050506110a9565b005b3480156102fa57600080fd5b5061036560048036038101908080356000191690602001909291908035600019169060200190929190803573ffffffffffffffffffffffffffffffffffffffff169060200190929190803563ffffffff1690602001909291908035906020019092919050505061156e565b60405180826000191660001916815260200191505060405180910390f35b34801561038f57600080fd5b506103b260048036038101908080356000191690602001909291905050506118df565b6040518082815260200191505060405180910390f35b3480156103d457600080fd5b506103f76004803603810190808035600019169060200190929190505050611907565b604051808273ffffffffffffffffffffffffffffffffffffffff1673ffffffffffffffffffffffffffffffffffffffff16815260200191505060405180910390f35b34801561044557600080fd5b50610468600480360381019080803560001916906020019092919050505061194f565b6040518082815260200191505060405180910390f35b34801561048a57600080fd5b50610631600480360381019080803590602001908201803590602001908080602002602001604051908101604052809392919081815260200183836020028082843782019150505050505091929192908035906020019082018035906020019080806020026020016040519081016040528093929190818152602001838360200280828437820191505050505050919291929080359060200190820180359060200190808060200260200160405190810160405280939291908181526020018383602002808284378201915050505050509192919290803590602001908201803590602001908080602002602001604051908101604052809392919081815260200183836020028082843782019150505050505091929192908035906020019082018035906020019080806020026020016040519081016040528093929190818152602001838360200280828437820191505050505050919291929080359060200190820180359060200190808060200260200160405190810160405280939291908181526020018383602002808284378201915050505050509192919290505050611977565b005b34801561063f57600080fd5b50610648611bf5565b005b34801561065657600080fd5b5061069b600480360381019080803560001916906020019092919080356000191690602001909291908035906020019092919080359060200190929190505050611d14565b005b3480156106a957600080fd5b506106c86004803603810190808035906020019092919050505061238d565b005b3480156106d657600080fd5b506106f56004803603810190808035906020019092919050505061243f565b60405180826000191660001916815260200191505060405180910390f35b34801561071f57600080fd5b506107426004803603810190808035600019169060200190929190505050612457565b60405180826000191660001916815260200191505060405180910390f35b34801561076c57600080fd5b5061078f600480360381019080803560001916906020019092919050505061247f565b604051808473ffffffffffffffffffffffffffffffffffffffff1673ffffffffffffffffffffffffffffffffffffffff168152602001838152602001828152602001935050505060405180910390f35b61080160048036038101908080356000191690602001909291905050506124c9565b005b34801561080f57600080fd5b50610844600480360381019080803573ffffffffffffffffffffffffffffffffffffffff1690602001909291905050506128c9565b6040518082815260200191505060405180910390f35b34801561086657600080fd5b5061089b600480360381019080803573ffffffffffffffffffffffffffffffffffffffff1690602001909291905050506128e1565b6040518082815260200191505060405180910390f35b61095f60048036038101908080359060200190929190803590602001908201803590602001908080601f0160208091040260200160405190810160405280939291908181526020018383808284378201915050505050509192919290803573ffffffffffffffffffffffffffffffffffffffff169060200190929190803563ffffffff169060200190929190803563ffffffff169060200190929190803590602001909291905050506128f9565b60405180826000191660001916815260200191505060405180910390f35b6109b76004803603810190808035600019169060200190929190803560001916906020019092919080359060200190929190505050612d2e565b005b3480156109c557600080fd5b506109e86004803603810190808035600019169060200190929190505050613298565b604051808215151515815260200191505060405180910390f35b348015610a0e57600080fd5b50610a316004803603810190808035600019169060200190929190505050613331565b60405180826000191660001916815260200191505060405180910390f35b348015610a5b57600080fd5b50610a7e6004803603810190808035600019169060200190929190505050613359565b604051808463ffffffff1663ffffffff168152602001831515151581526020018260001916600019168152602001935050505060405180910390f35b348015610ac657600080fd5b50610b21600480360381019080803590602001908201803590602001908080601f01602080910402602001604051908101604052809392919081815260200183838082843782019150505050505091929192905050506133a0565b6040518082815260200191505060405180910390f35b348015610b4357600080fd5b50610b666004803603810190808035600019169060200190929190505050613581565b60405180826000191660001916815260200191505060405180910390f35b348015610b9057600080fd5b50610bb360048036038101908080356000191690602001909291905050506135a9565b604051808215151515815260200191505060405180910390f35b348015610bd957600080fd5b50610bfc60048036038101908080356000191690602001909291905050506135de565b604051808b600019166000191681526020018a73ffffffffffffffffffffffffffffffffffffffff1673ffffffffffffffffffffffffffffffffffffffff1681526020018963ffffffff1663ffffffff1681526020018863ffffffff1663ffffffff1681526020018763ffffffff1663ffffffff16815260200186151515158152602001858152602001846000191660001916815260200183600019166000191681526020018281526020019a505050505050505050505060405180910390f35b348015610cc957600080fd5b50610cec600480360381019080803560001916906020019092919050505061368f565b604051808263ffffffff1663ffffffff16815260200191505060405180910390f35b348015610d1a57600080fd5b50610d3d60048036038101908080356000191690602001909291905050506136c7565b604051808263ffffffff1663ffffffff16815260200191505060405180910390f35b610e49600480360381019080803590602001908201803590602001908080601f0160208091040260200160405190810160405280939291908181526020018383808284378201915050505050509192919290803590602001908201803590602001908080601f0160208091040260200160405190810160405280939291908181526020018383808284378201915050505050509192919290803573ffffffffffffffffffffffffffffffffffffffff169060200190929190803563ffffffff169060200190929190803563ffffffff169060200190929190803590602001909291905050506136ff565b60405180826000191660001916815260200191505060405180910390f35b348015610e7357600080fd5b50610e966004803603810190808035600019169060200190929190505050613728565b60405180826000191660001916815260200191505060405180910390f35b348015610ec057600080fd5b50610ee360048036038101908080356000191690602001909291905050506137cf565b604051808263ffffffff1663ffffffff16815260200191505060405180910390f35b348015610f1157600080fd5b50610f3060048036038101908080359060200190929190505050613807565b6040518082815260200191505060405180910390f35b348015610f5257600080fd5b50610f75600480360381019080803560001916906020019092919050505061381f565b60405180826000191660001916815260200191505060405180910390f35b610fed6004803603810190808035600019169060200190929190803560001916906020019092919080359060200190929190803573ffffffffffffffffffffffffffffffffffffffff1690602001909291905050506138c6565b005b348015610ffb57600080fd5b506110486004803603810190808035600019169060200190929190803573ffffffffffffffffffffffffffffffffffffffff16906020019092919080359060200190929190505050614052565b005b34801561105657600080fd5b506110a760048036038101908080356000191690602001909291908035600019169060200190929190803573ffffffffffffffffffffffffffffffffffffffff169060200190929190505050614670565b005b60008060008060008060008b6110be81613298565b1515611132576040517f08c379a000000000000000000000000000000000000000000000000000000000815260040180806020018281038252601a8152602001807f7175657374696f6e206d7573742062652066696e616c697a656400000000000081525060200191505060405180910390fd5b60008c511115156111d1576040517f08c379a00000000000000000000000000000000000000000000000000000000081526004018080602001828103825260308152602001807f6174206c65617374206f6e6520686973746f7279206861736820656e7472792081526020017f6d7573742062652070726f76696465640000000000000000000000000000000081525060400191505060405180910390fd5b600560008e6000191660001916815260200190815260200160002060000160009054906101000a900473ffffffffffffffffffffffffffffffffffffffff169750600560008e60001916600019168152602001908152602001600020600101549650600560008e60001916600019168152602001908152602001600020600201549550600460008e60001916600019168152602001908152602001600020600501549450600460008e60001916600019168152602001908152602001600020600401549350600092505b8b518310156113c25761130d858d858151811015156112b657fe5b906020019060200201518b868151811015156112ce57fe5b906020019060200201518d878151811015156112e657fe5b906020019060200201518f888151811015156112fe57fe5b906020019060200201516149c4565b91506113228787614cbb90919063ffffffff16565b95506113798d85888b8f8881518110151561133957fe5b906020019060200201518f8981518110151561135157fe5b906020019060200201518f8a81518110151561136957fe5b9060200190602002015189614cd9565b8099508197505050898381518110151561138f57fe5b9060200190602002015196508b838151811015156113a957fe5b906020019060200201519450828060010193505061129b565b60006001026000191685600019161415156114c557600073ffffffffffffffffffffffffffffffffffffffff168873ffffffffffffffffffffffffffffffffffffffff1614151561141d576114188d8988614f10565b600095505b87600560008f6000191660001916815260200190815260200160002060000160006101000a81548173ffffffffffffffffffffffffffffffffffffffff021916908373ffffffffffffffffffffffffffffffffffffffff16021790555086600560008f600019166000191681526020019081526020016000206001018190555085600560008f6000191660001916815260200190815260200160002060020181905550611538565b6114e28d896114dd8a8a614cbb90919063ffffffff16565b614f10565b600560008e60001916600019168152602001908152602001600020600080820160006101000a81549073ffffffffffffffffffffffffffffffffffffffff02191690556001820160009055600282016000905550505b84600460008f60001916600019168152602001908152602001600020600501816000191690555050505050505050505050505050565b60008561157a81613298565b15156115ee576040517f08c379a000000000000000000000000000000000000000000000000000000000815260040180806020018281038252601a8152602001807f7175657374696f6e206d7573742062652066696e616c697a656400000000000081525060200191505060405180910390fd5b6004600088600019166000191681526020019081526020016000206000015460001916866000191614151561168b576040517f08c379a00000000000000000000000000000000000000000000000000000000081526004018080602001828103825260178152602001807f636f6e74656e742068617368206d757374206d6174636800000000000000000081525060200191505060405180910390fd5b60046000886000191660001916815260200190815260200160002060010160009054906101000a900473ffffffffffffffffffffffffffffffffffffffff1673ffffffffffffffffffffffffffffffffffffffff168573ffffffffffffffffffffffffffffffffffffffff1614151561176c576040517f08c379a00000000000000000000000000000000000000000000000000000000081526004018080602001828103825260158152602001807f61726269747261746f72206d757374206d61746368000000000000000000000081525060200191505060405180910390fd5b60046000886000191660001916815260200190815260200160002060010160189054906101000a900463ffffffff1663ffffffff168463ffffffff161115151561181e576040517f08c379a000000000000000000000000000000000000000000000000000000000815260040180806020018281038252601b8152602001807f74696d656f7574206d757374206265206c6f6e6720656e6f756768000000000081525060200191505060405180910390fd5b6004600088600019166000191681526020019081526020016000206006015483111515156118b4576040517f08c379a00000000000000000000000000000000000000000000000000000000081526004018080602001828103825260188152602001807f626f6e64206d757374206265206869676820656e6f756768000000000000000081525060200191505060405180910390fd5b6004600088600019166000191681526020019081526020016000206004015491505095945050505050565b6000600460008360001916600019168152602001908152602001600020600301549050919050565b600060046000836000191660001916815260200190815260200160002060010160009054906101000a900473ffffffffffffffffffffffffffffffffffffffff169050919050565b6000600460008360001916600019168152602001908152602001600020600601549050919050565b60008060008060608060608060008098505b8e51891015611bdc578e898151811015156119a057fe5b9060200190602002015196508d898151811015156119ba57fe5b906020019060200201519550856040519080825280602002602001820160405280156119f55781602001602082028038833980820191505090505b50945085604051908082528060200260200182016040528015611a275781602001602082028038833980820191505090505b50935085604051908082528060200260200182016040528015611a595781602001602082028038833980820191505090505b50925085604051908082528060200260200182016040528015611a8b5781602001602082028038833980820191505090505b509150600090505b85811015611bc2578c88815181101515611aa957fe5b906020019060200201518582815181101515611ac157fe5b9060200190602002019060001916908160001916815250508b88815181101515611ae757fe5b906020019060200201518482815181101515611aff57fe5b9060200190602002019073ffffffffffffffffffffffffffffffffffffffff16908173ffffffffffffffffffffffffffffffffffffffff16815250508a88815181101515611b4957fe5b906020019060200201518382815181101515611b6157fe5b90602001906020020181815250508988815181101515611b7d57fe5b906020019060200201518282815181101515611b9557fe5b90602001906020020190600019169081600019168152505087806001019850508080600101915050611a93565b611bcf87868686866110a9565b8880600101995050611989565b611be4611bf5565b505050505050505050505050505050565b60008060003373ffffffffffffffffffffffffffffffffffffffff1673ffffffffffffffffffffffffffffffffffffffff16815260200190815260200160002054905060008060003373ffffffffffffffffffffffffffffffffffffffff1673ffffffffffffffffffffffffffffffffffffffff168152602001908152602001600020819055503373ffffffffffffffffffffffffffffffffffffffff166108fc829081150290604051600060405180830381858888f19350505050158015611cc2573d6000803e3d6000fd5b503373ffffffffffffffffffffffffffffffffffffffff167f4ce7033d118120e254016dccf195288400b28fc8936425acd5f17ce2df3ab708826040518082815260200191505060405180910390a250565b60008085600080600060046000856000191660001916815260200190815260200160002060010160189054906101000a900463ffffffff1663ffffffff16111515611dc7576040517f08c379a00000000000000000000000000000000000000000000000000000000081526004018080602001828103825260138152602001807f7175657374696f6e206d7573742065786973740000000000000000000000000081525060200191505060405180910390fd5b600460008460001916600019168152602001908152602001600020600101601c9054906101000a900463ffffffff169150600063ffffffff168263ffffffff161480611e1e57504263ffffffff168263ffffffff16115b1515611eb8576040517f08c379a00000000000000000000000000000000000000000000000000000000081526004018080602001828103825260298152602001807f66696e616c697a6174696f6e206465616c696e65206d757374206e6f7420686181526020017f766520706173736564000000000000000000000000000000000000000000000081525060400191505060405180910390fd5b60046000846000191660001916815260200190815260200160002060010160149054906101000a900463ffffffff16905060008163ffffffff161480611f0a57504263ffffffff168163ffffffff1611155b1515611f7e576040517f08c379a000000000000000000000000000000000000000000000000000000000815260040180806020018281038252601d8152602001807f6f70656e696e672064617465206d75737420686176652070617373656400000081525060200191505060405180910390fd5b8787604051602001808360001916600019168152602001828152602001925050506040516020818303038152906040526040518082805190602001908083835b602083101515611fe35780518252602082019150602081019050602083039250611fbe565b6001836020036101000a03801982511681845116808217855250505050505090500191505060405180910390209450888587604051602001808460001916600019168152602001836000191660001916815260200182815260200193505050506040516020818303038152906040526040518082805190602001908083835b6020831015156120875780518252602082019150602081019050602083039250612062565b6001836020036101000a0380198251168184511680821785525050505050509050019150506040518091039020935060066000856000191660001916815260200190815260200160002060000160049054906101000a900460ff1615151561217d576040517f08c379a000000000000000000000000000000000000000000000000000000000815260040180806020018281038252602a8152602001807f636f6d6d69746d656e74206d757374206e6f742068617665206265656e20726581526020017f7665616c6564207965740000000000000000000000000000000000000000000081525060400191505060405180910390fd5b4263ffffffff1660066000866000191660001916815260200190815260200160002060000160009054906101000a900463ffffffff1663ffffffff16111515612254576040517f08c379a00000000000000000000000000000000000000000000000000000000081526004018080602001828103825260248152602001807f72657665616c20646561646c696e65206d757374206e6f74206861766520706181526020017f737365640000000000000000000000000000000000000000000000000000000081525060400191505060405180910390fd5b876006600086600019166000191681526020019081526020016000206001018160001916905550600160066000866000191660001916815260200190815260200160002060000160046101000a81548160ff021916908315150217905550600460008a6000191660001916815260200190815260200160002060060154861415612312576123118989600460008d6000191660001916815260200190815260200160002060010160189054906101000a900463ffffffff16614ffb565b5b84600019163373ffffffffffffffffffffffffffffffffffffffff168a600019167fa7b2d313bc7a062e30b2c3b811aa4c9faf09755a6b4ea3bf42deff920944332f8b8b8b604051808460001916600019168152602001838152602001828152602001935050505060405180910390a4505050505050505050565b80600760003373ffffffffffffffffffffffffffffffffffffffff1673ffffffffffffffffffffffffffffffffffffffff168152602001908152602001600020819055507fdca703d022171824d3d639b33c1525fd2338120b4cfb89507c0b59596893acda3382604051808373ffffffffffffffffffffffffffffffffffffffff1673ffffffffffffffffffffffffffffffffffffffff1681526020018281526020019250505060405180910390a150565b60036020528060005260406000206000915090505481565b6000600460008360001916600019168152602001908152602001600020600001549050919050565b60056020528060005260406000206000915090508060000160009054906101000a900473ffffffffffffffffffffffffffffffffffffffff16908060010154908060020154905083565b80600080600060046000856000191660001916815260200190815260200160002060010160189054906101000a900463ffffffff1663ffffffff16111515612579576040517f08c379a00000000000000000000000000000000000000000000000000000000081526004018080602001828103825260138152602001807f7175657374696f6e206d7573742065786973740000000000000000000000000081525060200191505060405180910390fd5b60046000846000191660001916815260200190815260200160002060020160009054906101000a900460ff16151515612640576040517f08c379a00000000000000000000000000000000000000000000000000000000081526004018080602001828103825260288152602001807f7175657374696f6e206d757374206e6f742062652070656e64696e672061726281526020017f6974726174696f6e00000000000000000000000000000000000000000000000081525060400191505060405180910390fd5b600460008460001916600019168152602001908152602001600020600101601c9054906101000a900463ffffffff169150600063ffffffff168263ffffffff16148061269757504263ffffffff168263ffffffff16115b1515612731576040517f08c379a000000000000000000000000000000000000000000000000000000000815260040180806020018281038252602a8152602001807f66696e616c697a6174696f6e20646561646c696e65206d757374206e6f74206881526020017f617665207061737365640000000000000000000000000000000000000000000081525060400191505060405180910390fd5b60046000846000191660001916815260200190815260200160002060010160149054906101000a900463ffffffff16905060008163ffffffff16148061278357504263ffffffff168163ffffffff1611155b15156127f7576040517f08c379a000000000000000000000000000000000000000000000000000000000815260040180806020018281038252601d8152602001807f6f70656e696e672064617465206d75737420686176652070617373656400000081525060200191505060405180910390fd5b6128283460046000876000191660001916815260200190815260200160002060030154614cbb90919063ffffffff16565b600460008660001916600019168152602001908152602001600020600301819055503373ffffffffffffffffffffffffffffffffffffffff1684600019167f54d68405b79f2aa4fd4e8db7b67844ad254cf8f208aac476c2894134a9deab663460046000896000191660001916815260200190815260200160002060030154604051808381526020018281526020019250505060405180910390a350505050565b60076020528060005260406000206000915090505481565b60006020528060005260406000206000915090505481565b600080600080600260008b815260200190815260200160002054111515612988576040517f08c379a00000000000000000000000000000000000000000000000000000000081526004018080602001828103825260138152602001807f74656d706c617465206d7573742065786973740000000000000000000000000081525060200191505060405180910390fd5b888589604051602001808481526020018363ffffffff1663ffffffff167c010000000000000000000000000000000000000000000000000000000002815260040182805190602001908083835b6020831015156129fa57805182526020820191506020810190506020830392506129d5565b6001836020036101000a03801982511681845116808217855250505050505090500193505050506040516020818303038152906040526040518082805190602001908083835b602083101515612a655780518252602082019150602081019050602083039250612a40565b6001836020036101000a0380198251168184511680821785525050505050509050019150506040518091039020915081878733876040516020018086600019166000191681526020018573ffffffffffffffffffffffffffffffffffffffff1673ffffffffffffffffffffffffffffffffffffffff166c010000000000000000000000000281526014018463ffffffff1663ffffffff167c01000000000000000000000000000000000000000000000000000000000281526004018373ffffffffffffffffffffffffffffffffffffffff1673ffffffffffffffffffffffffffffffffffffffff166c01000000000000000000000000028152601401828152602001955050505050506040516020818303038152906040526040518082805190602001908083835b602083101515612bb25780518252602082019150602081019050602083039250612b8d565b6001836020036101000a03801982511681845116808217855250505050505090500191505060405180910390209050612bee818389898961507c565b81600019163373ffffffffffffffffffffffffffffffffffffffff1682600019167ffe2dac156a3890636ce13f65f4fdf41dcaee11526e4a5374531572d92194796c8c8c8c8c8c8c4260405180888152602001806020018773ffffffffffffffffffffffffffffffffffffffff1673ffffffffffffffffffffffffffffffffffffffff1681526020018663ffffffff1663ffffffff1681526020018563ffffffff1663ffffffff168152602001848152602001838152602001828103825288818151815260200191508051906020019080838360005b83811015612cdf578082015181840152602081019050612cc4565b50505050905090810190601f168015612d0c5780820380516001836020036101000a031916815260200191505b509850505050505050505060405180910390a480925050509695505050505050565b82600080600060046000856000191660001916815260200190815260200160002060010160189054906101000a900463ffffffff1663ffffffff16111515612dde576040517f08c379a00000000000000000000000000000000000000000000000000000000081526004018080602001828103825260138152602001807f7175657374696f6e206d7573742065786973740000000000000000000000000081525060200191505060405180910390fd5b60046000846000191660001916815260200190815260200160002060020160009054906101000a900460ff16151515612ea5576040517f08c379a00000000000000000000000000000000000000000000000000000000081526004018080602001828103825260288152602001807f7175657374696f6e206d757374206e6f742062652070656e64696e672061726281526020017f6974726174696f6e00000000000000000000000000000000000000000000000081525060400191505060405180910390fd5b600460008460001916600019168152602001908152602001600020600101601c9054906101000a900463ffffffff169150600063ffffffff168263ffffffff161480612efc57504263ffffffff168263ffffffff16115b1515612f96576040517f08c379a000000000000000000000000000000000000000000000000000000000815260040180806020018281038252602a8152602001807f66696e616c697a6174696f6e20646561646c696e65206d757374206e6f74206881526020017f617665207061737365640000000000000000000000000000000000000000000081525060400191505060405180910390fd5b60046000846000191660001916815260200190815260200160002060010160149054906101000a900463ffffffff16905060008163ffffffff161480612fe857504263ffffffff168163ffffffff1611155b151561305c576040517f08c379a000000000000000000000000000000000000000000000000000000000815260040180806020018281038252601d8152602001807f6f70656e696e672064617465206d75737420686176652070617373656400000081525060200191505060405180910390fd5b856000341115156130d5576040517f08c379a00000000000000000000000000000000000000000000000000000000081526004018080602001828103825260158152602001807f626f6e64206d75737420626520706f736974697665000000000000000000000081525060200191505060405180910390fd5b6131076002600460008460001916600019168152602001908152602001600020600601546155e290919063ffffffff16565b34101515156131a4576040517f08c379a000000000000000000000000000000000000000000000000000000000815260040180806020018281038252602a8152602001807f626f6e64206d75737420626520646f75626c65206174206c656173742070726581526020017f76696f757320626f6e640000000000000000000000000000000000000000000081525060400191505060405180910390fd5b8685600081111561324657806004600084600019166000191681526020019081526020016000206006015411151515613245576040517f08c379a000000000000000000000000000000000000000000000000000000000815260040180806020018281038252601d8152602001807f626f6e64206d75737420657863656564206d61785f70726576696f757300000081525060200191505060405180910390fd5b5b61325489893334600061561d565b61328d8989600460008d6000191660001916815260200190815260200160002060010160189054906101000a900463ffffffff16614ffb565b505050505050505050565b600080600460008460001916600019168152602001908152602001600020600101601c9054906101000a900463ffffffff16905060046000846000191660001916815260200190815260200160002060020160009054906101000a900460ff161580156133115750600063ffffffff168163ffffffff16115b801561332957504263ffffffff168163ffffffff1611155b915050919050565b6000600460008360001916600019168152602001908152602001600020600501549050919050565b60066020528060005260406000206000915090508060000160009054906101000a900463ffffffff16908060000160049054906101000a900460ff16908060010154905083565b6000806001549050436002600083815260200190815260200160002081905550826040516020018082805190602001908083835b6020831015156133f957805182526020820191506020810190506020830392506133d4565b6001836020036101000a0380198251168184511680821785525050505050509050019150506040516020818303038152906040526040518082805190602001908083835b602083101515613462578051825260208201915060208101905060208303925061343d565b6001836020036101000a03801982511681845116808217855250505050505090500191505060405180910390206003600083815260200190815260200160002081600019169055503373ffffffffffffffffffffffffffffffffffffffff16817fb87fb721c0a557bb8dff89a86796466931d82ba530a66a239263eb8735ade2e4856040518080602001828103825283818151815260200191508051906020019080838360005b83811015613524578082015181840152602081019050613509565b50505050905090810190601f1680156135515780820380516001836020036101000a031916815260200191505b509250505060405180910390a3613572600182614cbb90919063ffffffff16565b60018190555080915050919050565b6000600460008360001916600019168152602001908152602001600020600401549050919050565b600060046000836000191660001916815260200190815260200160002060020160009054906101000a900460ff169050919050565b60046020528060005260406000206000915090508060000154908060010160009054906101000a900473ffffffffffffffffffffffffffffffffffffffff16908060010160149054906101000a900463ffffffff16908060010160189054906101000a900463ffffffff169080600101601c9054906101000a900463ffffffff16908060020160009054906101000a900460ff1690806003015490806004015490806005015490806006015490508a565b600060046000836000191660001916815260200190815260200160002060010160149054906101000a900463ffffffff169050919050565b600060046000836000191660001916815260200190815260200160002060010160189054906101000a900463ffffffff169050919050565b60008061370b886133a0565b905061371b8188888888886128f9565b9150509695505050505050565b60008161373481613298565b15156137a8576040517f08c379a000000000000000000000000000000000000000000000000000000000815260040180806020018281038252601a8152602001807f7175657374696f6e206d7573742062652066696e616c697a656400000000000081525060200191505060405180910390fd5b60046000846000191660001916815260200190815260200160002060040154915050919050565b6000600460008360001916600019168152602001908152602001600020600101601c9054906101000a900463ffffffff169050919050565b60026020528060005260406000206000915090505481565b60008161382b81613298565b151561389f576040517f08c379a000000000000000000000000000000000000000000000000000000000815260040180806020018281038252601a8152602001807f7175657374696f6e206d7573742062652066696e616c697a656400000000000081525060200191505060405180910390fd5b60046000846000191660001916815260200190815260200160002060040154915050919050565b600080600086600080600060046000856000191660001916815260200190815260200160002060010160189054906101000a900463ffffffff1663ffffffff1611151561397b576040517f08c379a00000000000000000000000000000000000000000000000000000000081526004018080602001828103825260138152602001807f7175657374696f6e206d7573742065786973740000000000000000000000000081525060200191505060405180910390fd5b60046000846000191660001916815260200190815260200160002060020160009054906101000a900460ff16151515613a42576040517f08c379a00000000000000000000000000000000000000000000000000000000081526004018080602001828103825260288152602001807f7175657374696f6e206d757374206e6f742062652070656e64696e672061726281526020017f6974726174696f6e00000000000000000000000000000000000000000000000081525060400191505060405180910390fd5b600460008460001916600019168152602001908152602001600020600101601c9054906101000a900463ffffffff169150600063ffffffff168263ffffffff161480613a9957504263ffffffff168263ffffffff16115b1515613b33576040517f08c379a000000000000000000000000000000000000000000000000000000000815260040180806020018281038252602a8152602001807f66696e616c697a6174696f6e20646561646c696e65206d757374206e6f74206881526020017f617665207061737365640000000000000000000000000000000000000000000081525060400191505060405180910390fd5b60046000846000191660001916815260200190815260200160002060010160149054906101000a900463ffffffff16905060008163ffffffff161480613b8557504263ffffffff168163ffffffff1611155b1515613bf9576040517f08c379a000000000000000000000000000000000000000000000000000000000815260040180806020018281038252601d8152602001807f6f70656e696e672064617465206d75737420686176652070617373656400000081525060200191505060405180910390fd5b89600034111515613c72576040517f08c379a00000000000000000000000000000000000000000000000000000000081526004018080602001828103825260158152602001807f626f6e64206d75737420626520706f736974697665000000000000000000000081525060200191505060405180910390fd5b613ca46002600460008460001916600019168152602001908152602001600020600601546155e290919063ffffffff16565b3410151515613d41576040517f08c379a000000000000000000000000000000000000000000000000000000000815260040180806020018281038252602a8152602001807f626f6e64206d75737420626520646f75626c65206174206c656173742070726581526020017f76696f757320626f6e640000000000000000000000000000000000000000000081525060400191505060405180910390fd5b8a896000811115613de357806004600084600019166000191681526020019081526020016000206006015411151515613de2576040517f08c379a000000000000000000000000000000000000000000000000000000000815260040180806020018281038252601d8152602001807f626f6e64206d75737420657863656564206d61785f70726576696f757300000081525060200191505060405180910390fd5b5b8c8c34604051602001808460001916600019168152602001836000191660001916815260200182815260200193505050506040516020818303038152906040526040518082805190602001908083835b602083101515613e585780518252602082019150602081019050602083039250613e33565b6001836020036101000a03801982511681845116808217855250505050505090500191505060405180910390209850600073ffffffffffffffffffffffffffffffffffffffff168a73ffffffffffffffffffffffffffffffffffffffff1614613ec15789613ec3565b335b97506000600660008b6000191660001916815260200190815260200160002060000160009054906101000a900463ffffffff1663ffffffff16141515613f97576040517f08c379a00000000000000000000000000000000000000000000000000000000081526004018080602001828103825260218152602001807f636f6d6d69746d656e74206d757374206e6f7420616c7265616479206578697381526020017f740000000000000000000000000000000000000000000000000000000000000081525060400191505060405180910390fd5b600863ffffffff16600460008f6000191660001916815260200190815260200160002060010160189054906101000a900463ffffffff1663ffffffff16811515613fdd57fe5b049650613ff9874263ffffffff1661583590919063ffffffff16565b600660008b6000191660001916815260200190815260200160002060000160006101000a81548163ffffffff021916908363ffffffff1602179055506140438d8a8a34600161561d565b50505050505050505050505050565b8260046000826000191660001916815260200190815260200160002060010160009054906101000a900473ffffffffffffffffffffffffffffffffffffffff1673ffffffffffffffffffffffffffffffffffffffff163373ffffffffffffffffffffffffffffffffffffffff16141515614134576040517f08c379a000000000000000000000000000000000000000000000000000000000815260040180806020018281038252601d8152602001807f6d73672e73656e646572206d7573742062652061726269747261746f7200000081525060200191505060405180910390fd5b83600080600060046000856000191660001916815260200190815260200160002060010160189054906101000a900463ffffffff1663ffffffff161115156141e4576040517f08c379a00000000000000000000000000000000000000000000000000000000081526004018080602001828103825260138152602001807f7175657374696f6e206d7573742065786973740000000000000000000000000081525060200191505060405180910390fd5b60046000846000191660001916815260200190815260200160002060020160009054906101000a900460ff161515156142ab576040517f08c379a00000000000000000000000000000000000000000000000000000000081526004018080602001828103825260288152602001807f7175657374696f6e206d757374206e6f742062652070656e64696e672061726281526020017f6974726174696f6e00000000000000000000000000000000000000000000000081525060400191505060405180910390fd5b600460008460001916600019168152602001908152602001600020600101601c9054906101000a900463ffffffff169150600063ffffffff168263ffffffff16148061430257504263ffffffff168263ffffffff16115b151561439c576040517f08c379a000000000000000000000000000000000000000000000000000000000815260040180806020018281038252602a8152602001807f66696e616c697a6174696f6e20646561646c696e65206d757374206e6f74206881526020017f617665207061737365640000000000000000000000000000000000000000000081525060400191505060405180910390fd5b60046000846000191660001916815260200190815260200160002060010160149054906101000a900463ffffffff16905060008163ffffffff1614806143ee57504263ffffffff168163ffffffff1611155b1515614462576040517f08c379a000000000000000000000000000000000000000000000000000000000815260040180806020018281038252601d8152602001807f6f70656e696e672064617465206d75737420686176652070617373656400000081525060200191505060405180910390fd5b8685600081111561450457806004600084600019166000191681526020019081526020016000206006015411151515614503576040517f08c379a000000000000000000000000000000000000000000000000000000000815260040180806020018281038252601d8152602001807f626f6e64206d75737420657863656564206d61785f70726576696f757300000081525060200191505060405180910390fd5b5b6000600460008b60001916600019168152602001908152602001600020600601541115156145e6576040517f08c379a00000000000000000000000000000000000000000000000000000000081526004018080602001828103825260428152602001807f5175657374696f6e206d75737420616c7265616479206861766520616e20616e81526020017f73776572207768656e206172626974726174696f6e206973207265717565737481526020017f656400000000000000000000000000000000000000000000000000000000000081525060600191505060405180910390fd5b6001600460008b6000191660001916815260200190815260200160002060020160006101000a81548160ff0219169083151502179055508773ffffffffffffffffffffffffffffffffffffffff1689600019167f75d7939999bc902187c4aed400872883e445145f1983539166f783fa040b476260405160405180910390a3505050505050505050565b8260046000826000191660001916815260200190815260200160002060010160009054906101000a900473ffffffffffffffffffffffffffffffffffffffff1673ffffffffffffffffffffffffffffffffffffffff163373ffffffffffffffffffffffffffffffffffffffff16141515614752576040517f08c379a000000000000000000000000000000000000000000000000000000000815260040180806020018281038252601d8152602001807f6d73672e73656e646572206d7573742062652061726269747261746f7200000081525060200191505060405180910390fd5b8360046000826000191660001916815260200190815260200160002060020160009054906101000a900460ff161515614819576040517f08c379a00000000000000000000000000000000000000000000000000000000081526004018080602001828103825260248152602001807f7175657374696f6e206d7573742062652070656e64696e67206172626974726181526020017f74696f6e0000000000000000000000000000000000000000000000000000000081525060400191505060405180910390fd5b600034141515614891576040517f08c379a00000000000000000000000000000000000000000000000000000000081526004018080602001828103825260118152602001807f626f6e64206d757374206265207a65726f00000000000000000000000000000081525060200191505060405180910390fd5b600073ffffffffffffffffffffffffffffffffffffffff168373ffffffffffffffffffffffffffffffffffffffff1614151515614936576040517f08c379a00000000000000000000000000000000000000000000000000000000081526004018080602001828103825260198152602001807f616e737765726572206d7573742062652070726f76696465640000000000000081525060200191505060405180910390fd5b836000191685600019167f18d760beffe3717270cd90d9d920ec1a48c194e9ad7bba23eb1c92d3eb974f9760405160405180910390a3600060046000876000191660001916815260200190815260200160002060020160006101000a81548160ff0219169083151502179055506149b185858560008061561d565b6149bd85856000614ffb565b5050505050565b600084848484600160405160200180866000191660001916815260200185600019166000191681526020018481526020018373ffffffffffffffffffffffffffffffffffffffff1673ffffffffffffffffffffffffffffffffffffffff166c0100000000000000000000000002815260140182151515157f0100000000000000000000000000000000000000000000000000000000000000028152600101955050505050506040516020818303038152906040526040518082805190602001908083835b602083101515614aad5780518252602082019150602081019050602083039250614a88565b6001836020036101000a03801982511681845116808217855250505050505090500191505060405180910390206000191686600019161415614af25760019050614cb2565b84848484600060405160200180866000191660001916815260200185600019166000191681526020018481526020018373ffffffffffffffffffffffffffffffffffffffff1673ffffffffffffffffffffffffffffffffffffffff166c0100000000000000000000000002815260140182151515157f0100000000000000000000000000000000000000000000000000000000000000028152600101955050505050506040516020818303038152906040526040518082805190602001908083835b602083101515614bd95780518252602082019150602081019050602083039250614bb4565b6001836020036101000a03801982511681845116808217855250505050505090500191505060405180910390206000191686600019161415614c1e5760009050614cb2565b6040517f08c379a00000000000000000000000000000000000000000000000000000000081526004018080602001828103825260368152602001807f486973746f727920696e7075742070726f766964656420646964206e6f74206d81526020017f617463682074686520657870656374656420686173680000000000000000000081525060400191505060405180910390fd5b95945050505050565b6000808284019050838110151515614ccf57fe5b8091505092915050565b6000806000808415614de95785915060066000836000191660001916815260200190815260200160002060000160049054906101000a900460ff161515614d7657600660008360001916600019168152602001908152602001600020600080820160006101000a81549063ffffffff02191690556000820160046101000a81549060ff021916905560018201600090555050898993509350614f01565b600660008360001916600019168152602001908152602001600020600101549550600660008360001916600019168152602001908152602001600020600080820160006101000a81549063ffffffff02191690556000820160046101000a81549060ff0219169055600182016000905550505b8a6000191686600019161415614efa57600073ffffffffffffffffffffffffffffffffffffffff168973ffffffffffffffffffffffffffffffffffffffff161415614e8d57879850614e62600460008e60001916600019168152602001908152602001600020600301548b614cbb90919063ffffffff16565b99506000600460008e6000191660001916815260200190815260200160002060030181905550614ef9565b8873ffffffffffffffffffffffffffffffffffffffff168873ffffffffffffffffffffffffffffffffffffffff16141515614ef857868a1015614ed05789614ed2565b865b9050614ef18c8a614eec848e61585f90919063ffffffff16565b614f10565b8798508099505b5b5b8989935093505b50509850989650505050505050565b614f61816000808573ffffffffffffffffffffffffffffffffffffffff1673ffffffffffffffffffffffffffffffffffffffff16815260200190815260200160002054614cbb90919063ffffffff16565b6000808473ffffffffffffffffffffffffffffffffffffffff1673ffffffffffffffffffffffffffffffffffffffff168152602001908152602001600020819055508173ffffffffffffffffffffffffffffffffffffffff1683600019167f9c121aff33b50c1a53fef034ebec5f83da2d5a5187048f9c76c397ba27c1a1a6836040518082815260200191505060405180910390a3505050565b81600460008560001916600019168152602001908152602001600020600401816000191690555061503b814263ffffffff1661583590919063ffffffff16565b600460008560001916600019168152602001908152602001600020600101601c6101000a81548163ffffffff021916908363ffffffff160217905550505050565b60008086600060046000836000191660001916815260200190815260200160002060010160189054906101000a900463ffffffff1663ffffffff1614151561512c576040517f08c379a00000000000000000000000000000000000000000000000000000000081526004018080602001828103825260178152602001807f7175657374696f6e206d757374206e6f7420657869737400000000000000000081525060200191505060405180910390fd5b60008563ffffffff161115156151aa576040517f08c379a00000000000000000000000000000000000000000000000000000000081526004018080602001828103825260188152602001807f74696d656f7574206d75737420626520706f736974697665000000000000000081525060200191505060405180910390fd5b6301e133808563ffffffff16101515615251576040517f08c379a00000000000000000000000000000000000000000000000000000000081526004018080602001828103825260228152602001807f74696d656f7574206d757374206265206c657373207468616e2033363520646181526020017f797300000000000000000000000000000000000000000000000000000000000081525060400191505060405180910390fd5b600073ffffffffffffffffffffffffffffffffffffffff168673ffffffffffffffffffffffffffffffffffffffff16141515156152f6576040517f08c379a00000000000000000000000000000000000000000000000000000000081526004018080602001828103825260168152602001807f61726269747261746f72206d757374206265207365740000000000000000000081525060200191505060405180910390fd5b3492508573ffffffffffffffffffffffffffffffffffffffff163373ffffffffffffffffffffffffffffffffffffffff161415156154b757600760008773ffffffffffffffffffffffffffffffffffffffff1673ffffffffffffffffffffffffffffffffffffffff16815260200190815260200160002054915081831015151561540e576040517f08c379a00000000000000000000000000000000000000000000000000000000081526004018080602001828103825260248152602001807f4554482070726f7669646564206d75737420636f766572207175657374696f6e81526020017f206665650000000000000000000000000000000000000000000000000000000081525060400191505060405180910390fd5b615421828461585f90919063ffffffff16565b9250615474826000808973ffffffffffffffffffffffffffffffffffffffff1673ffffffffffffffffffffffffffffffffffffffff16815260200190815260200160002054614cbb90919063ffffffff16565b6000808873ffffffffffffffffffffffffffffffffffffffff1673ffffffffffffffffffffffffffffffffffffffff168152602001908152602001600020819055505b86600460008a60001916600019168152602001908152602001600020600001816000191690555085600460008a6000191660001916815260200190815260200160002060010160006101000a81548173ffffffffffffffffffffffffffffffffffffffff021916908373ffffffffffffffffffffffffffffffffffffffff16021790555083600460008a6000191660001916815260200190815260200160002060010160146101000a81548163ffffffff021916908363ffffffff16021790555084600460008a6000191660001916815260200190815260200160002060010160186101000a81548163ffffffff021916908363ffffffff16021790555082600460008a60001916600019168152602001908152602001600020600301819055505050505050505050565b60008060008414156155f75760009150615616565b828402905082848281151561560857fe5b0414151561561257fe5b8091505b5092915050565b6000600460008760001916600019168152602001908152602001600020600501548584868560405160200180866000191660001916815260200185600019166000191681526020018481526020018373ffffffffffffffffffffffffffffffffffffffff1673ffffffffffffffffffffffffffffffffffffffff166c0100000000000000000000000002815260140182151515157f0100000000000000000000000000000000000000000000000000000000000000028152600101955050505050506040516020818303038152906040526040518082805190602001908083835b60208310151561572357805182526020820191506020810190506020830392506156fe565b6001836020036101000a03801982511681845116808217855250505050505090500191505060405180910390209050600083111561577f5782600460008860001916600019168152602001908152602001600020600601819055505b8060046000886000191660001916815260200190815260200160002060050181600019169055508373ffffffffffffffffffffffffffffffffffffffff1686600019167fe47ca4ebbbc2990134d1168821f38c5e177f3d5ee564bffeadeaa351905e622187848742886040518086600019166000191681526020018560001916600019168152602001848152602001838152602001821515151581526020019550505050505060405180910390a3505050505050565b60008082840190508363ffffffff168163ffffffff161015151561585557fe5b8091505092915050565b600082821115151561586d57fe5b8183039050929150505600a165627a7a72305820e8401ce41790b3a485788e64fdcbb5ee48b58b1786ba538dbb35656b90a5ab4b0029",
  "source": "pragma solidity ^0.4.25;\n\nimport './RealitioSafeMath256.sol';\nimport './RealitioSafeMath32.sol';\nimport './BalanceHolder.sol';\n\n\ncontract Realitio is BalanceHolder {\n\n    using RealitioSafeMath256 for uint256;\n    using RealitioSafeMath32 for uint32;\n\n    address constant NULL_ADDRESS = address(0);\n\n    // History hash when no history is created, or history has been cleared\n    bytes32 constant NULL_HASH = bytes32(0);\n\n    // An unitinalized finalize_ts for a question will indicate an unanswered question.\n    uint32 constant UNANSWERED = 0;\n\n    // An unanswered reveal_ts for a commitment will indicate that it does not exist.\n    uint256 constant COMMITMENT_NON_EXISTENT = 0;\n\n    // Commit->reveal timeout is 1/8 of the question timeout (rounded down).\n    uint32 constant COMMITMENT_TIMEOUT_RATIO = 8;\n\n    event LogSetQuestionFee(\n        address arbitrator,\n        uint256 amount\n    );\n\n    event LogNewTemplate(\n        uint256 indexed template_id,\n        address indexed user, \n        string question_text\n    );\n\n    event LogNewQuestion(\n        bytes32 indexed question_id,\n        address indexed user, \n        uint256 template_id,\n        string question,\n        bytes32 indexed content_hash,\n        address arbitrator, \n        uint32 timeout,\n        uint32 opening_ts,\n        uint256 nonce,\n        uint256 created\n    );\n\n    event LogFundAnswerBounty(\n        bytes32 indexed question_id,\n        uint256 bounty_added,\n        uint256 bounty,\n        address indexed user \n    );\n\n    event LogNewAnswer(\n        bytes32 answer,\n        bytes32 indexed question_id,\n        bytes32 history_hash,\n        address indexed user,\n        uint256 bond,\n        uint256 ts,\n        bool is_commitment\n    );\n\n    event LogAnswerReveal(\n        bytes32 indexed question_id, \n        address indexed user, \n        bytes32 indexed answer_hash, \n        bytes32 answer, \n        uint256 nonce, \n        uint256 bond\n    );\n\n    event LogNotifyOfArbitrationRequest(\n        bytes32 indexed question_id,\n        address indexed user \n    );\n\n    event LogFinalize(\n        bytes32 indexed question_id,\n        bytes32 indexed answer\n    );\n\n    event LogClaim(\n        bytes32 indexed question_id,\n        address indexed user,\n        uint256 amount\n    );\n\n    struct Question {\n        bytes32 content_hash;\n        address arbitrator;\n        uint32 opening_ts;\n        uint32 timeout;\n        uint32 finalize_ts;\n        bool is_pending_arbitration;\n        uint256 bounty;\n        bytes32 best_answer;\n        bytes32 history_hash;\n        uint256 bond;\n    }\n\n    // Stored in a mapping indexed by commitment_id, a hash of commitment hash, question, bond. \n    struct Commitment {\n        uint32 reveal_ts;\n        bool is_revealed;\n        bytes32 revealed_answer;\n    }\n\n    // Only used when claiming more bonds than fits into a transaction\n    // Stored in a mapping indexed by question_id.\n    struct Claim {\n        address payee;\n        uint256 last_bond;\n        uint256 queued_funds;\n    }\n\n    uint256 nextTemplateID = 0;\n    mapping(uint256 => uint256) public templates;\n    mapping(uint256 => bytes32) public template_hashes;\n    mapping(bytes32 => Question) public questions;\n    mapping(bytes32 => Claim) public question_claims;\n    mapping(bytes32 => Commitment) public commitments;\n    mapping(address => uint256) public arbitrator_question_fees; \n\n    modifier onlyArbitrator(bytes32 question_id) {\n        require(msg.sender == questions[question_id].arbitrator, \"msg.sender must be arbitrator\");\n        _;\n    }\n\n    modifier stateAny() {\n        _;\n    }\n\n    modifier stateNotCreated(bytes32 question_id) {\n        require(questions[question_id].timeout == 0, \"question must not exist\");\n        _;\n    }\n\n    modifier stateOpen(bytes32 question_id) {\n        require(questions[question_id].timeout > 0, \"question must exist\");\n        require(!questions[question_id].is_pending_arbitration, \"question must not be pending arbitration\");\n        uint32 finalize_ts = questions[question_id].finalize_ts;\n        require(finalize_ts == UNANSWERED || finalize_ts > uint32(now), \"finalization deadline must not have passed\");\n        uint32 opening_ts = questions[question_id].opening_ts;\n        require(opening_ts == 0 || opening_ts <= uint32(now), \"opening date must have passed\"); \n        _;\n    }\n\n    modifier statePendingArbitration(bytes32 question_id) {\n        require(questions[question_id].is_pending_arbitration, \"question must be pending arbitration\");\n        _;\n    }\n\n    modifier stateOpenOrPendingArbitration(bytes32 question_id) {\n        require(questions[question_id].timeout > 0, \"question must exist\");\n        uint32 finalize_ts = questions[question_id].finalize_ts;\n        require(finalize_ts == UNANSWERED || finalize_ts > uint32(now), \"finalization dealine must not have passed\");\n        uint32 opening_ts = questions[question_id].opening_ts;\n        require(opening_ts == 0 || opening_ts <= uint32(now), \"opening date must have passed\"); \n        _;\n    }\n\n    modifier stateFinalized(bytes32 question_id) {\n        require(isFinalized(question_id), \"question must be finalized\");\n        _;\n    }\n\n    modifier bondMustBeZero() {\n        require(msg.value == 0, \"bond must be zero\");\n        _;\n    }\n\n    modifier bondMustDouble(bytes32 question_id) {\n        require(msg.value > 0, \"bond must be positive\"); \n        require(msg.value >= (questions[question_id].bond.mul(2)), \"bond must be double at least previous bond\");\n        _;\n    }\n\n    modifier previousBondMustNotBeatMaxPrevious(bytes32 question_id, uint256 max_previous) {\n        if (max_previous > 0) {\n            require(questions[question_id].bond <= max_previous, \"bond must exceed max_previous\");\n        }\n        _;\n    }\n\n    /// @notice Constructor, sets up some initial templates\n    /// @dev Creates some generalized templates for different question types used in the DApp.\n    constructor() \n    public {\n        createTemplate('{\"title\": \"%s\", \"type\": \"bool\", \"category\": \"%s\", \"lang\": \"%s\"}');\n        createTemplate('{\"title\": \"%s\", \"type\": \"uint\", \"decimals\": 18, \"category\": \"%s\", \"lang\": \"%s\"}');\n        createTemplate('{\"title\": \"%s\", \"type\": \"single-select\", \"outcomes\": [%s], \"category\": \"%s\", \"lang\": \"%s\"}');\n        createTemplate('{\"title\": \"%s\", \"type\": \"multiple-select\", \"outcomes\": [%s], \"category\": \"%s\", \"lang\": \"%s\"}');\n        createTemplate('{\"title\": \"%s\", \"type\": \"datetime\", \"category\": \"%s\", \"lang\": \"%s\"}');\n    }\n\n    /// @notice Function for arbitrator to set an optional per-question fee. \n    /// @dev The per-question fee, charged when a question is asked, is intended as an anti-spam measure.\n    /// @param fee The fee to be charged by the arbitrator when a question is asked\n    function setQuestionFee(uint256 fee) \n        stateAny() \n    external {\n        arbitrator_question_fees[msg.sender] = fee;\n        emit LogSetQuestionFee(msg.sender, fee);\n    }\n\n    /// @notice Create a reusable template, which should be a JSON document.\n    /// Placeholders should use gettext() syntax, eg %s.\n    /// @dev Template data is only stored in the event logs, but its block number is kept in contract storage.\n    /// @param content The template content\n    /// @return The ID of the newly-created template, which is created sequentially.\n    function createTemplate(string content) \n        stateAny()\n    public returns (uint256) {\n        uint256 id = nextTemplateID;\n        templates[id] = block.number;\n        template_hashes[id] = keccak256(abi.encodePacked(content));\n        emit LogNewTemplate(id, msg.sender, content);\n        nextTemplateID = id.add(1);\n        return id;\n    }\n\n    /// @notice Create a new reusable template and use it to ask a question\n    /// @dev Template data is only stored in the event logs, but its block number is kept in contract storage.\n    /// @param content The template content\n    /// @param question A string containing the parameters that will be passed into the template to make the question\n    /// @param arbitrator The arbitration contract that will have the final word on the answer if there is a dispute\n    /// @param timeout How long the contract should wait after the answer is changed before finalizing on that answer\n    /// @param opening_ts If set, the earliest time it should be possible to answer the question.\n    /// @param nonce A user-specified nonce used in the question ID. Change it to repeat a question.\n    /// @return The ID of the newly-created template, which is created sequentially.\n    function createTemplateAndAskQuestion(\n        string content, \n        string question, address arbitrator, uint32 timeout, uint32 opening_ts, uint256 nonce \n    ) \n        // stateNotCreated is enforced by the internal _askQuestion\n    public payable returns (bytes32) {\n        uint256 template_id = createTemplate(content);\n        return askQuestion(template_id, question, arbitrator, timeout, opening_ts, nonce);\n    }\n\n    /// @notice Ask a new question and return the ID\n    /// @dev Template data is only stored in the event logs, but its block number is kept in contract storage.\n    /// @param template_id The ID number of the template the question will use\n    /// @param question A string containing the parameters that will be passed into the template to make the question\n    /// @param arbitrator The arbitration contract that will have the final word on the answer if there is a dispute\n    /// @param timeout How long the contract should wait after the answer is changed before finalizing on that answer\n    /// @param opening_ts If set, the earliest time it should be possible to answer the question.\n    /// @param nonce A user-specified nonce used in the question ID. Change it to repeat a question.\n    /// @return The ID of the newly-created question, created deterministically.\n    function askQuestion(uint256 template_id, string question, address arbitrator, uint32 timeout, uint32 opening_ts, uint256 nonce) \n        // stateNotCreated is enforced by the internal _askQuestion\n    public payable returns (bytes32) {\n\n        require(templates[template_id] > 0, \"template must exist\");\n\n        bytes32 content_hash = keccak256(abi.encodePacked(template_id, opening_ts, question));\n        bytes32 question_id = keccak256(abi.encodePacked(content_hash, arbitrator, timeout, msg.sender, nonce));\n\n        _askQuestion(question_id, content_hash, arbitrator, timeout, opening_ts);\n        emit LogNewQuestion(question_id, msg.sender, template_id, question, content_hash, arbitrator, timeout, opening_ts, nonce, now);\n\n        return question_id;\n    }\n\n    function _askQuestion(bytes32 question_id, bytes32 content_hash, address arbitrator, uint32 timeout, uint32 opening_ts) \n        stateNotCreated(question_id)\n    internal {\n\n        // A timeout of 0 makes no sense, and we will use this to check existence\n        require(timeout > 0, \"timeout must be positive\"); \n        require(timeout < 365 days, \"timeout must be less than 365 days\"); \n        require(arbitrator != NULL_ADDRESS, \"arbitrator must be set\");\n\n        uint256 bounty = msg.value;\n\n        // The arbitrator can set a fee for asking a question. \n        // This is intended as an anti-spam defence.\n        // The fee is waived if the arbitrator is asking the question.\n        // This allows them to set an impossibly high fee and make users proxy the question through them.\n        // This would allow more sophisticated pricing, question whitelisting etc.\n        if (msg.sender != arbitrator) {\n            uint256 question_fee = arbitrator_question_fees[arbitrator];\n            require(bounty >= question_fee, \"ETH provided must cover question fee\"); \n            bounty = bounty.sub(question_fee);\n            balanceOf[arbitrator] = balanceOf[arbitrator].add(question_fee);\n        }\n\n        questions[question_id].content_hash = content_hash;\n        questions[question_id].arbitrator = arbitrator;\n        questions[question_id].opening_ts = opening_ts;\n        questions[question_id].timeout = timeout;\n        questions[question_id].bounty = bounty;\n\n    }\n\n    /// @notice Add funds to the bounty for a question\n    /// @dev Add bounty funds after the initial question creation. Can be done any time until the question is finalized.\n    /// @param question_id The ID of the question you wish to fund\n    function fundAnswerBounty(bytes32 question_id) \n        stateOpen(question_id)\n    external payable {\n        questions[question_id].bounty = questions[question_id].bounty.add(msg.value);\n        emit LogFundAnswerBounty(question_id, msg.value, questions[question_id].bounty, msg.sender);\n    }\n\n    /// @notice Submit an answer for a question.\n    /// @dev Adds the answer to the history and updates the current \"best\" answer.\n    /// May be subject to front-running attacks; Substitute submitAnswerCommitment()->submitAnswerReveal() to prevent them.\n    /// @param question_id The ID of the question\n    /// @param answer The answer, encoded into bytes32\n    /// @param max_previous If specified, reverts if a bond higher than this was submitted after you sent your transaction.\n    function submitAnswer(bytes32 question_id, bytes32 answer, uint256 max_previous) \n        stateOpen(question_id)\n        bondMustDouble(question_id)\n        previousBondMustNotBeatMaxPrevious(question_id, max_previous)\n    external payable {\n        _addAnswerToHistory(question_id, answer, msg.sender, msg.value, false);\n        _updateCurrentAnswer(question_id, answer, questions[question_id].timeout);\n    }\n\n    /// @notice Submit the hash of an answer, laying your claim to that answer if you reveal it in a subsequent transaction.\n    /// @dev Creates a hash, commitment_id, uniquely identifying this answer, to this question, with this bond.\n    /// The commitment_id is stored in the answer history where the answer would normally go.\n    /// Does not update the current best answer - this is left to the later submitAnswerReveal() transaction.\n    /// @param question_id The ID of the question\n    /// @param answer_hash The hash of your answer, plus a nonce that you will later reveal\n    /// @param max_previous If specified, reverts if a bond higher than this was submitted after you sent your transaction.\n    /// @param _answerer If specified, the address to be given as the question answerer. Defaults to the sender.\n    /// @dev Specifying the answerer is useful if you want to delegate the commit-and-reveal to a third-party.\n    function submitAnswerCommitment(bytes32 question_id, bytes32 answer_hash, uint256 max_previous, address _answerer) \n        stateOpen(question_id)\n        bondMustDouble(question_id)\n        previousBondMustNotBeatMaxPrevious(question_id, max_previous)\n    external payable {\n\n        bytes32 commitment_id = keccak256(abi.encodePacked(question_id, answer_hash, msg.value));\n        address answerer = (_answerer == NULL_ADDRESS) ? msg.sender : _answerer;\n\n        require(commitments[commitment_id].reveal_ts == COMMITMENT_NON_EXISTENT, \"commitment must not already exist\");\n\n        uint32 commitment_timeout = questions[question_id].timeout / COMMITMENT_TIMEOUT_RATIO;\n        commitments[commitment_id].reveal_ts = uint32(now).add(commitment_timeout);\n\n        _addAnswerToHistory(question_id, commitment_id, answerer, msg.value, true);\n\n    }\n\n    /// @notice Submit the answer whose hash you sent in a previous submitAnswerCommitment() transaction\n    /// @dev Checks the parameters supplied recreate an existing commitment, and stores the revealed answer\n    /// Updates the current answer unless someone has since supplied a new answer with a higher bond\n    /// msg.sender is intentionally not restricted to the user who originally sent the commitment; \n    /// For example, the user may want to provide the answer+nonce to a third-party service and let them send the tx\n    /// NB If we are pending arbitration, it will be up to the arbitrator to wait and see any outstanding reveal is sent\n    /// @param question_id The ID of the question\n    /// @param answer The answer, encoded as bytes32\n    /// @param nonce The nonce that, combined with the answer, recreates the answer_hash you gave in submitAnswerCommitment()\n    /// @param bond The bond that you paid in your submitAnswerCommitment() transaction\n    function submitAnswerReveal(bytes32 question_id, bytes32 answer, uint256 nonce, uint256 bond) \n        stateOpenOrPendingArbitration(question_id)\n    external {\n\n        bytes32 answer_hash = keccak256(abi.encodePacked(answer, nonce));\n        bytes32 commitment_id = keccak256(abi.encodePacked(question_id, answer_hash, bond));\n\n        require(!commitments[commitment_id].is_revealed, \"commitment must not have been revealed yet\");\n        require(commitments[commitment_id].reveal_ts > uint32(now), \"reveal deadline must not have passed\");\n\n        commitments[commitment_id].revealed_answer = answer;\n        commitments[commitment_id].is_revealed = true;\n\n        if (bond == questions[question_id].bond) {\n            _updateCurrentAnswer(question_id, answer, questions[question_id].timeout);\n        }\n\n        emit LogAnswerReveal(question_id, msg.sender, answer_hash, answer, nonce, bond);\n\n    }\n\n    function _addAnswerToHistory(bytes32 question_id, bytes32 answer_or_commitment_id, address answerer, uint256 bond, bool is_commitment) \n    internal \n    {\n        bytes32 new_history_hash = keccak256(abi.encodePacked(questions[question_id].history_hash, answer_or_commitment_id, bond, answerer, is_commitment));\n\n        // Update the current bond level, if there's a bond (ie anything except arbitration)\n        if (bond > 0) {\n            questions[question_id].bond = bond;\n        }\n        questions[question_id].history_hash = new_history_hash;\n\n        emit LogNewAnswer(answer_or_commitment_id, question_id, new_history_hash, answerer, bond, now, is_commitment);\n    }\n\n    function _updateCurrentAnswer(bytes32 question_id, bytes32 answer, uint32 timeout_secs)\n    internal {\n        questions[question_id].best_answer = answer;\n        questions[question_id].finalize_ts = uint32(now).add(timeout_secs);\n    }\n\n    /// @notice Notify the contract that the arbitrator has been paid for a question, freezing it pending their decision.\n    /// @dev The arbitrator contract is trusted to only call this if they've been paid, and tell us who paid them.\n    /// @param question_id The ID of the question\n    /// @param requester The account that requested arbitration\n    /// @param max_previous If specified, reverts if a bond higher than this was submitted after you sent your transaction.\n    function notifyOfArbitrationRequest(bytes32 question_id, address requester, uint256 max_previous) \n        onlyArbitrator(question_id)\n        stateOpen(question_id)\n        previousBondMustNotBeatMaxPrevious(question_id, max_previous)\n    external {\n        require(questions[question_id].bond > 0, \"Question must already have an answer when arbitration is requested\");\n        questions[question_id].is_pending_arbitration = true;\n        emit LogNotifyOfArbitrationRequest(question_id, requester);\n    }\n\n    /// @notice Submit the answer for a question, for use by the arbitrator.\n    /// @dev Doesn't require (or allow) a bond.\n    /// If the current final answer is correct, the account should be whoever submitted it.\n    /// If the current final answer is wrong, the account should be whoever paid for arbitration.\n    /// However, the answerer stipulations are not enforced by the contract.\n    /// @param question_id The ID of the question\n    /// @param answer The answer, encoded into bytes32\n    /// @param answerer The account credited with this answer for the purpose of bond claims\n    function submitAnswerByArbitrator(bytes32 question_id, bytes32 answer, address answerer) \n        onlyArbitrator(question_id)\n        statePendingArbitration(question_id)\n        bondMustBeZero\n    external {\n\n        require(answerer != NULL_ADDRESS, \"answerer must be provided\");\n        emit LogFinalize(question_id, answer);\n\n        questions[question_id].is_pending_arbitration = false;\n        _addAnswerToHistory(question_id, answer, answerer, 0, false);\n        _updateCurrentAnswer(question_id, answer, 0);\n\n    }\n\n    /// @notice Report whether the answer to the specified question is finalized\n    /// @param question_id The ID of the question\n    /// @return Return true if finalized\n    function isFinalized(bytes32 question_id) \n    view public returns (bool) {\n        uint32 finalize_ts = questions[question_id].finalize_ts;\n        return ( !questions[question_id].is_pending_arbitration && (finalize_ts > UNANSWERED) && (finalize_ts <= uint32(now)) );\n    }\n\n    /// @notice (Deprecated) Return the final answer to the specified question, or revert if there isn't one\n    /// @param question_id The ID of the question\n    /// @return The answer formatted as a bytes32\n    function getFinalAnswer(bytes32 question_id) \n        stateFinalized(question_id)\n    external view returns (bytes32) {\n        return questions[question_id].best_answer;\n    }\n\n    /// @notice Return the final answer to the specified question, or revert if there isn't one\n    /// @param question_id The ID of the question\n    /// @return The answer formatted as a bytes32\n    function resultFor(bytes32 question_id) \n        stateFinalized(question_id)\n    external view returns (bytes32) {\n        return questions[question_id].best_answer;\n    }\n\n\n    /// @notice Return the final answer to the specified question, provided it matches the specified criteria.\n    /// @dev Reverts if the question is not finalized, or if it does not match the specified criteria.\n    /// @param question_id The ID of the question\n    /// @param content_hash The hash of the question content (template ID + opening time + question parameter string)\n    /// @param arbitrator The arbitrator chosen for the question (regardless of whether they are asked to arbitrate)\n    /// @param min_timeout The timeout set in the initial question settings must be this high or higher\n    /// @param min_bond The bond sent with the final answer must be this high or higher\n    /// @return The answer formatted as a bytes32\n    function getFinalAnswerIfMatches(\n        bytes32 question_id, \n        bytes32 content_hash, address arbitrator, uint32 min_timeout, uint256 min_bond\n    ) \n        stateFinalized(question_id)\n    external view returns (bytes32) {\n        require(content_hash == questions[question_id].content_hash, \"content hash must match\");\n        require(arbitrator == questions[question_id].arbitrator, \"arbitrator must match\");\n        require(min_timeout <= questions[question_id].timeout, \"timeout must be long enough\");\n        require(min_bond <= questions[question_id].bond, \"bond must be high enough\");\n        return questions[question_id].best_answer;\n    }\n\n    /// @notice Assigns the winnings (bounty and bonds) to everyone who gave the accepted answer\n    /// Caller must provide the answer history, in reverse order\n    /// @dev Works up the chain and assign bonds to the person who gave the right answer\n    /// If someone gave the winning answer earlier, they must get paid from the higher bond\n    /// That means we can't pay out the bond added at n until we have looked at n-1\n    /// The first answer is authenticated by checking against the stored history_hash.\n    /// One of the inputs to history_hash is the history_hash before it, so we use that to authenticate the next entry, etc\n    /// Once we get to a null hash we'll know we're done and there are no more answers.\n    /// Usually you would call the whole thing in a single transaction, but if not then the data is persisted to pick up later.\n    /// @param question_id The ID of the question\n    /// @param history_hashes Second-last-to-first, the hash of each history entry. (Final one should be empty).\n    /// @param addrs Last-to-first, the address of each answerer or commitment sender\n    /// @param bonds Last-to-first, the bond supplied with each answer or commitment\n    /// @param answers Last-to-first, each answer supplied, or commitment ID if the answer was supplied with commit->reveal\n    function claimWinnings(\n        bytes32 question_id, \n        bytes32[] history_hashes, address[] addrs, uint256[] bonds, bytes32[] answers\n    ) \n        stateFinalized(question_id)\n    public {\n\n        require(history_hashes.length > 0, \"at least one history hash entry must be provided\");\n\n        // These are only set if we split our claim over multiple transactions.\n        address payee = question_claims[question_id].payee; \n        uint256 last_bond = question_claims[question_id].last_bond; \n        uint256 queued_funds = question_claims[question_id].queued_funds; \n\n        // Starts as the hash of the final answer submitted. It'll be cleared when we're done.\n        // If we're splitting the claim over multiple transactions, it'll be the hash where we left off last time\n        bytes32 last_history_hash = questions[question_id].history_hash;\n\n        bytes32 best_answer = questions[question_id].best_answer;\n\n        uint256 i;\n        for (i = 0; i < history_hashes.length; i++) {\n        \n            // Check input against the history hash, and see which of 2 possible values of is_commitment fits.\n            bool is_commitment = _verifyHistoryInputOrRevert(last_history_hash, history_hashes[i], answers[i], bonds[i], addrs[i]);\n            \n            queued_funds = queued_funds.add(last_bond); \n            (queued_funds, payee) = _processHistoryItem(\n                question_id, best_answer, queued_funds, payee, \n                addrs[i], bonds[i], answers[i], is_commitment);\n \n            // Line the bond up for next time, when it will be added to somebody's queued_funds\n            last_bond = bonds[i];\n            last_history_hash = history_hashes[i];\n\n        }\n \n        if (last_history_hash != NULL_HASH) {\n            // We haven't yet got to the null hash (1st answer), ie the caller didn't supply the full answer chain.\n            // Persist the details so we can pick up later where we left off later.\n\n            // If we know who to pay we can go ahead and pay them out, only keeping back last_bond\n            // (We always know who to pay unless all we saw were unrevealed commits)\n            if (payee != NULL_ADDRESS) {\n                _payPayee(question_id, payee, queued_funds);\n                queued_funds = 0;\n            }\n\n            question_claims[question_id].payee = payee;\n            question_claims[question_id].last_bond = last_bond;\n            question_claims[question_id].queued_funds = queued_funds;\n        } else {\n            // There is nothing left below us so the payee can keep what remains\n            _payPayee(question_id, payee, queued_funds.add(last_bond));\n            delete question_claims[question_id];\n        }\n\n        questions[question_id].history_hash = last_history_hash;\n\n    }\n\n    function _payPayee(bytes32 question_id, address payee, uint256 value) \n    internal {\n        balanceOf[payee] = balanceOf[payee].add(value);\n        emit LogClaim(question_id, payee, value);\n    }\n\n    function _verifyHistoryInputOrRevert(\n        bytes32 last_history_hash,\n        bytes32 history_hash, bytes32 answer, uint256 bond, address addr\n    )\n    internal pure returns (bool) {\n        if (last_history_hash == keccak256(abi.encodePacked(history_hash, answer, bond, addr, true)) ) {\n            return true;\n        }\n        if (last_history_hash == keccak256(abi.encodePacked(history_hash, answer, bond, addr, false)) ) {\n            return false;\n        } \n        revert(\"History input provided did not match the expected hash\");\n    }\n\n    function _processHistoryItem(\n        bytes32 question_id, bytes32 best_answer, \n        uint256 queued_funds, address payee, \n        address addr, uint256 bond, bytes32 answer, bool is_commitment\n    )\n    internal returns (uint256, address) {\n\n        // For commit-and-reveal, the answer history holds the commitment ID instead of the answer.\n        // We look at the referenced commitment ID and switch in the actual answer.\n        if (is_commitment) {\n            bytes32 commitment_id = answer;\n            // If it's a commit but it hasn't been revealed, it will always be considered wrong.\n            if (!commitments[commitment_id].is_revealed) {\n                delete commitments[commitment_id];\n                return (queued_funds, payee);\n            } else {\n                answer = commitments[commitment_id].revealed_answer;\n                delete commitments[commitment_id];\n            }\n        }\n\n        if (answer == best_answer) {\n\n            if (payee == NULL_ADDRESS) {\n\n                // The entry is for the first payee we come to, ie the winner.\n                // They get the question bounty.\n                payee = addr;\n                queued_funds = queued_funds.add(questions[question_id].bounty);\n                questions[question_id].bounty = 0;\n\n            } else if (addr != payee) {\n\n                // Answerer has changed, ie we found someone lower down who needs to be paid\n\n                // The lower answerer will take over receiving bonds from higher answerer.\n                // They should also be paid the takeover fee, which is set at a rate equivalent to their bond. \n                // (This is our arbitrary rule, to give consistent right-answerers a defence against high-rollers.)\n\n                // There should be enough for the fee, but if not, take what we have.\n                // There's an edge case involving weird arbitrator behaviour where we may be short.\n                uint256 answer_takeover_fee = (queued_funds >= bond) ? bond : queued_funds;\n\n                // Settle up with the old (higher-bonded) payee\n                _payPayee(question_id, payee, queued_funds.sub(answer_takeover_fee));\n\n                // Now start queued_funds again for the new (lower-bonded) payee\n                payee = addr;\n                queued_funds = answer_takeover_fee;\n\n            }\n\n        }\n\n        return (queued_funds, payee);\n\n    }\n\n    /// @notice Convenience function to assign bounties/bonds for multiple questions in one go, then withdraw all your funds.\n    /// Caller must provide the answer history for each question, in reverse order\n    /// @dev Can be called by anyone to assign bonds/bounties, but funds are only withdrawn for the user making the call.\n    /// @param question_ids The IDs of the questions you want to claim for\n    /// @param lengths The number of history entries you will supply for each question ID\n    /// @param hist_hashes In a single list for all supplied questions, the hash of each history entry.\n    /// @param addrs In a single list for all supplied questions, the address of each answerer or commitment sender\n    /// @param bonds In a single list for all supplied questions, the bond supplied with each answer or commitment\n    /// @param answers In a single list for all supplied questions, each answer supplied, or commitment ID \n    function claimMultipleAndWithdrawBalance(\n        bytes32[] question_ids, uint256[] lengths, \n        bytes32[] hist_hashes, address[] addrs, uint256[] bonds, bytes32[] answers\n    ) \n        stateAny() // The finalization checks are done in the claimWinnings function\n    public {\n        \n        uint256 qi;\n        uint256 i;\n        for (qi = 0; qi < question_ids.length; qi++) {\n            bytes32 qid = question_ids[qi];\n            uint256 ln = lengths[qi];\n            bytes32[] memory hh = new bytes32[](ln);\n            address[] memory ad = new address[](ln);\n            uint256[] memory bo = new uint256[](ln);\n            bytes32[] memory an = new bytes32[](ln);\n            uint256 j;\n            for (j = 0; j < ln; j++) {\n                hh[j] = hist_hashes[i];\n                ad[j] = addrs[i];\n                bo[j] = bonds[i];\n                an[j] = answers[i];\n                i++;\n            }\n            claimWinnings(qid, hh, ad, bo, an);\n        }\n        withdraw();\n    }\n\n    /// @notice Returns the questions's content hash, identifying the question content\n    /// @param question_id The ID of the question \n    function getContentHash(bytes32 question_id) \n    public view returns(bytes32) {\n        return questions[question_id].content_hash;\n    }\n\n    /// @notice Returns the arbitrator address for the question\n    /// @param question_id The ID of the question \n    function getArbitrator(bytes32 question_id) \n    public view returns(address) {\n        return questions[question_id].arbitrator;\n    }\n\n    /// @notice Returns the timestamp when the question can first be answered\n    /// @param question_id The ID of the question \n    function getOpeningTS(bytes32 question_id) \n    public view returns(uint32) {\n        return questions[question_id].opening_ts;\n    }\n\n    /// @notice Returns the timeout in seconds used after each answer\n    /// @param question_id The ID of the question \n    function getTimeout(bytes32 question_id) \n    public view returns(uint32) {\n        return questions[question_id].timeout;\n    }\n\n    /// @notice Returns the timestamp at which the question will be/was finalized\n    /// @param question_id The ID of the question \n    function getFinalizeTS(bytes32 question_id) \n    public view returns(uint32) {\n        return questions[question_id].finalize_ts;\n    }\n\n    /// @notice Returns whether the question is pending arbitration\n    /// @param question_id The ID of the question \n    function isPendingArbitration(bytes32 question_id) \n    public view returns(bool) {\n        return questions[question_id].is_pending_arbitration;\n    }\n\n    /// @notice Returns the current total unclaimed bounty\n    /// @dev Set back to zero once the bounty has been claimed\n    /// @param question_id The ID of the question \n    function getBounty(bytes32 question_id) \n    public view returns(uint256) {\n        return questions[question_id].bounty;\n    }\n\n    /// @notice Returns the current best answer\n    /// @param question_id The ID of the question \n    function getBestAnswer(bytes32 question_id) \n    public view returns(bytes32) {\n        return questions[question_id].best_answer;\n    }\n\n    /// @notice Returns the history hash of the question \n    /// @param question_id The ID of the question \n    /// @dev Updated on each answer, then rewound as each is claimed\n    function getHistoryHash(bytes32 question_id) \n    public view returns(bytes32) {\n        return questions[question_id].history_hash;\n    }\n\n    /// @notice Returns the highest bond posted so far for a question\n    /// @param question_id The ID of the question \n    function getBond(bytes32 question_id) \n    public view returns(uint256) {\n        return questions[question_id].bond;\n    }\n\n}\n",
  "sourcePath": "/home/ed/working/MultiSigWallet/contracts/Realitio.sol",
  "compiler": {
    "name": "solc",
    "version": "0.4.25+commit.59dbf8f1.Emscripten.clang"
  },
  "schemaVersion": "3.0.0-beta.1",
  "updatedAt": "2018-11-07T06:26:42.788Z"
}