{
  "contractName": "TestCalls",
  "abi": [
    {
      "constant": true,
      "inputs": [],
      "name": "lastMsgValue",
      "outputs": [
        {
          "name": "",
          "type": "uint256"
        }
      ],
      "payable": false,
      "stateMutability": "view",
      "type": "function"
    },
    {
      "constant": true,
      "inputs": [],
      "name": "uint1",
      "outputs": [
        {
          "name": "",
          "type": "uint256"
        }
      ],
      "payable": false,
      "stateMutability": "view",
      "type": "function"
    },
    {
      "constant": true,
      "inputs": [],
      "name": "lastMsgDataLength",
      "outputs": [
        {
          "name": "",
          "type": "uint256"
        }
      ],
      "payable": false,
      "stateMutability": "view",
      "type": "function"
    },
    {
      "constant": true,
      "inputs": [],
      "name": "byteArray1",
      "outputs": [
        {
          "name": "",
          "type": "bytes"
        }
      ],
      "payable": false,
      "stateMutability": "view",
      "type": "function"
    },
    {
      "constant": true,
      "inputs": [],
      "name": "uint2",
      "outputs": [
        {
          "name": "",
          "type": "uint256"
        }
      ],
      "payable": false,
      "stateMutability": "view",
      "type": "function"
    },
    {
      "inputs": [],
      "payable": false,
      "stateMutability": "nonpayable",
      "type": "constructor"
    },
    {
      "constant": false,
      "inputs": [
        {
          "name": "a",
          "type": "uint256"
        }
      ],
      "name": "receive1uint",
      "outputs": [],
      "payable": true,
      "stateMutability": "payable",
      "type": "function"
    },
    {
      "constant": false,
      "inputs": [
        {
          "name": "a",
          "type": "uint256"
        },
        {
          "name": "b",
          "type": "uint256"
        }
      ],
      "name": "receive2uints",
      "outputs": [],
      "payable": true,
      "stateMutability": "payable",
      "type": "function"
    },
    {
      "constant": false,
      "inputs": [
        {
          "name": "c",
          "type": "bytes"
        }
      ],
      "name": "receive1bytes",
      "outputs": [],
      "payable": true,
      "stateMutability": "payable",
      "type": "function"
    },
    {
      "constant": false,
      "inputs": [],
      "name": "nonPayable",
      "outputs": [],
      "payable": false,
      "stateMutability": "nonpayable",
      "type": "function"
    }
  ],
  "bytecode": "0x608060405234801561001057600080fd5b5060003690506000819055503460018190555061049e806100326000396000f300608060405260043610610099576000357c0100000000000000000000000000000000000000000000000000000000900463ffffffff168063463d1fca1461009e57806352da86d5146100c95780635e6feab4146100e057806371a9001c1461010b57806388c7fb2814610136578063a8d82ed2146101c6578063a8e996c6146101f0578063afd9ee111461024c578063eb61dc5514610277575b600080fd5b3480156100aa57600080fd5b506100b3610297565b6040518082815260200191505060405180910390f35b3480156100d557600080fd5b506100de61029d565b005b3480156100ec57600080fd5b506100f56102b1565b6040518082815260200191505060405180910390f35b34801561011757600080fd5b506101206102b7565b6040518082815260200191505060405180910390f35b34801561014257600080fd5b5061014b6102bd565b6040518080602001828103825283818151815260200191508051906020019080838360005b8381101561018b578082015181840152602081019050610170565b50505050905090810190601f1680156101b85780820380516001836020036101000a031916815260200191505b509250505060405180910390f35b6101ee600480360381019080803590602001909291908035906020019092919050505061035b565b005b61024a600480360381019080803590602001908201803590602001908080601f016020809104026020016040519081016040528093929190818152602001838380828437820191505050505050919291929050505061037f565b005b34801561025857600080fd5b506102616103ab565b6040518082815260200191505060405180910390f35b610295600480360381019080803590602001909291905050506103b1565b005b60015481565b600036905060008190555034600181905550565b60025481565b60005481565b60048054600181600116156101000203166002900480601f0160208091040260200160405190810160405280929190818152602001828054600181600116156101000203166002900480156103535780601f1061032857610100808354040283529160200191610353565b820191906000526020600020905b81548152906001019060200180831161033657829003601f168201915b505050505081565b60003690506000819055503460018190555081600281905550806003819055505050565b60003690506000819055503460018190555080600490805190602001906103a79291906103cd565b5050565b60035481565b6000369050600081905550346001819055508060028190555050565b828054600181600116156101000203166002900490600052602060002090601f016020900481019282601f1061040e57805160ff191683800117855561043c565b8280016001018555821561043c579182015b8281111561043b578251825591602001919060010190610420565b5b509050610449919061044d565b5090565b61046f91905b8082111561046b576000816000905550600101610453565b5090565b905600a165627a7a72305820a32cf2a67023c5c116c879eb5dff91c46f973d833b72d098ec725d1d5c5f78d40029",
  "source": "pragma solidity ^0.4.15;\n\n\n/// @title Contract for testing low-level calls issued from the multisig wallet\ncontract TestCalls {\n\n\t// msg.data.length of the latest call to \"receive\" methods\n\tuint public lastMsgDataLength;\n\n\t// msg.value of the latest call to \"receive\" methods\n\tuint public lastMsgValue;\n\n\tuint public uint1;\n\tuint public uint2;\n\tbytes public byteArray1;\n\n\tmodifier setMsgFields {\n\t\tlastMsgDataLength = msg.data.length;\n\t\tlastMsgValue = msg.value;\n\t\t_;\n\t}\n\n\tfunction TestCalls() setMsgFields public {\n\t\t// This constructor will be used to test the creation via multisig wallet\n\t}\n\n\tfunction receive1uint(uint a) setMsgFields payable public {\n\t\tuint1 = a;\n\t}\n\n\tfunction receive2uints(uint a, uint b) setMsgFields payable public {\n\t\tuint1 = a;\n\t\tuint2 = b;\n\t}\n\n\tfunction receive1bytes(bytes c) setMsgFields payable public {\n\t\tbyteArray1 = c;\n\t}\n\n\tfunction nonPayable() setMsgFields public {\n\t}\n\n}",
  "sourcePath": "/home/ed/working/MultiSigWallet/contracts/TestCalls.sol",
  "compiler": {
    "name": "solc",
    "version": "0.4.25+commit.59dbf8f1.Emscripten.clang"
  },
  "schemaVersion": "3.0.0-beta.1",
  "updatedAt": "2018-10-23T05:10:04.528Z"
}